{
  "_format": "hh-sol-artifact-1",
  "contractName": "DaoFactory",
  "sourceName": "contracts/DAOFactory/DaoFactory.sol",
  "abi": [
    {
      "inputs": [
        {
          "internalType": "address",
          "name": "_vote_address",
          "type": "address"
        },
        {
          "internalType": "address",
          "name": "_timeLock_address",
          "type": "address"
        },
        {
          "internalType": "address",
          "name": "_dao_address",
          "type": "address"
        },
        {
          "internalType": "address",
          "name": "_sortedProposalList",
          "type": "address"
        },
        {
          "internalType": "address",
          "name": "_sortedQueueAndExecutionList",
          "type": "address"
        }
      ],
      "stateMutability": "nonpayable",
      "type": "constructor"
    },
    {
      "anonymous": false,
      "inputs": [
        {
          "indexed": true,
          "internalType": "uint256",
          "name": "id",
          "type": "uint256"
        },
        {
          "indexed": false,
          "internalType": "string",
          "name": "name",
          "type": "string"
        },
        {
          "indexed": false,
          "internalType": "address",
          "name": "dao",
          "type": "address"
        },
        {
          "indexed": false,
          "internalType": "address",
          "name": "vote",
          "type": "address"
        },
        {
          "indexed": false,
          "internalType": "uint256",
          "name": "createdTime",
          "type": "uint256"
        }
      ],
      "name": "Create",
      "type": "event"
    },
    {
      "anonymous": false,
      "inputs": [
        {
          "indexed": true,
          "internalType": "bytes32",
          "name": "role",
          "type": "bytes32"
        },
        {
          "indexed": true,
          "internalType": "bytes32",
          "name": "previousAdminRole",
          "type": "bytes32"
        },
        {
          "indexed": true,
          "internalType": "bytes32",
          "name": "newAdminRole",
          "type": "bytes32"
        }
      ],
      "name": "RoleAdminChanged",
      "type": "event"
    },
    {
      "anonymous": false,
      "inputs": [
        {
          "indexed": true,
          "internalType": "bytes32",
          "name": "role",
          "type": "bytes32"
        },
        {
          "indexed": true,
          "internalType": "address",
          "name": "account",
          "type": "address"
        },
        {
          "indexed": true,
          "internalType": "address",
          "name": "sender",
          "type": "address"
        }
      ],
      "name": "RoleGranted",
      "type": "event"
    },
    {
      "anonymous": false,
      "inputs": [
        {
          "indexed": true,
          "internalType": "bytes32",
          "name": "role",
          "type": "bytes32"
        },
        {
          "indexed": true,
          "internalType": "address",
          "name": "account",
          "type": "address"
        },
        {
          "indexed": true,
          "internalType": "address",
          "name": "sender",
          "type": "address"
        }
      ],
      "name": "RoleRevoked",
      "type": "event"
    },
    {
      "inputs": [],
      "name": "BRAND_MANAGER_ROLE",
      "outputs": [
        {
          "internalType": "bytes32",
          "name": "",
          "type": "bytes32"
        }
      ],
      "stateMutability": "view",
      "type": "function"
    },
    {
      "inputs": [],
      "name": "DAO_ADDRESS",
      "outputs": [
        {
          "internalType": "address",
          "name": "",
          "type": "address"
        }
      ],
      "stateMutability": "view",
      "type": "function"
    },
    {
      "inputs": [],
      "name": "DEFAULT_ADMIN_ROLE",
      "outputs": [
        {
          "internalType": "bytes32",
          "name": "",
          "type": "bytes32"
        }
      ],
      "stateMutability": "view",
      "type": "function"
    },
    {
      "inputs": [],
      "name": "TIMELOCK_ADDRESS",
      "outputs": [
        {
          "internalType": "address",
          "name": "",
          "type": "address"
        }
      ],
      "stateMutability": "view",
      "type": "function"
    },
    {
      "inputs": [],
      "name": "VOTE_ADDRESS",
      "outputs": [
        {
          "internalType": "address",
          "name": "",
          "type": "address"
        }
      ],
      "stateMutability": "view",
      "type": "function"
    },
    {
      "inputs": [
        {
          "components": [
            {
              "internalType": "string",
              "name": "daoName",
              "type": "string"
            },
            {
              "internalType": "address",
              "name": "owner",
              "type": "address"
            },
            {
              "internalType": "uint256",
              "name": "voteMaximumSupply",
              "type": "uint256"
            },
            {
              "internalType": "uint256",
              "name": "votePrice",
              "type": "uint256"
            },
            {
              "internalType": "string",
              "name": "voteName",
              "type": "string"
            },
            {
              "internalType": "string",
              "name": "voteSymbol",
              "type": "string"
            },
            {
              "internalType": "string",
              "name": "voteURI",
              "type": "string"
            },
            {
              "internalType": "uint256",
              "name": "timelockMinDelay",
              "type": "uint256"
            },
            {
              "internalType": "uint256",
              "name": "governanceVotingDelay",
              "type": "uint256"
            },
            {
              "internalType": "uint256",
              "name": "governanceVotingPeriod",
              "type": "uint256"
            },
            {
              "internalType": "uint256",
              "name": "governanceQuorumPercentage",
              "type": "uint256"
            }
          ],
          "internalType": "struct IDaoFactory.createParams",
          "name": "params",
          "type": "tuple"
        }
      ],
      "name": "create",
      "outputs": [],
      "stateMutability": "nonpayable",
      "type": "function"
    },
    {
      "inputs": [
        {
          "internalType": "uint256",
          "name": "",
          "type": "uint256"
        }
      ],
      "name": "daoStorage",
      "outputs": [
        {
          "internalType": "string",
          "name": "name",
          "type": "string"
        },
        {
          "internalType": "address",
          "name": "vote",
          "type": "address"
        },
        {
          "internalType": "address",
          "name": "timelock",
          "type": "address"
        },
        {
          "internalType": "address",
          "name": "dao",
          "type": "address"
        },
        {
          "internalType": "uint256",
          "name": "createdTime",
          "type": "uint256"
        }
      ],
      "stateMutability": "view",
      "type": "function"
    },
    {
      "inputs": [
        {
          "internalType": "uint256",
          "name": "",
          "type": "uint256"
        }
      ],
      "name": "executorList",
      "outputs": [
        {
          "internalType": "address",
          "name": "",
          "type": "address"
        }
      ],
      "stateMutability": "view",
      "type": "function"
    },
    {
      "inputs": [],
      "name": "fetchDaoStoage",
      "outputs": [
        {
          "components": [
            {
              "internalType": "string",
              "name": "name",
              "type": "string"
            },
            {
              "internalType": "address",
              "name": "vote",
              "type": "address"
            },
            {
              "internalType": "address",
              "name": "timelock",
              "type": "address"
            },
            {
              "internalType": "address",
              "name": "dao",
              "type": "address"
            },
            {
              "internalType": "uint256",
              "name": "createdTime",
              "type": "uint256"
            }
          ],
          "internalType": "struct DaoFactory.DAO[]",
          "name": "daolist",
          "type": "tuple[]"
        }
      ],
      "stateMutability": "view",
      "type": "function"
    },
    {
      "inputs": [
        {
          "internalType": "bytes32",
          "name": "role",
          "type": "bytes32"
        }
      ],
      "name": "getRoleAdmin",
      "outputs": [
        {
          "internalType": "bytes32",
          "name": "",
          "type": "bytes32"
        }
      ],
      "stateMutability": "view",
      "type": "function"
    },
    {
      "inputs": [
        {
          "internalType": "bytes32",
          "name": "role",
          "type": "bytes32"
        },
        {
          "internalType": "address",
          "name": "account",
          "type": "address"
        }
      ],
      "name": "grantRole",
      "outputs": [],
      "stateMutability": "nonpayable",
      "type": "function"
    },
    {
      "inputs": [
        {
          "internalType": "bytes32",
          "name": "role",
          "type": "bytes32"
        },
        {
          "internalType": "address",
          "name": "account",
          "type": "address"
        }
      ],
      "name": "hasRole",
      "outputs": [
        {
          "internalType": "bool",
          "name": "",
          "type": "bool"
        }
      ],
      "stateMutability": "view",
      "type": "function"
    },
    {
      "inputs": [],
      "name": "id",
      "outputs": [
        {
          "internalType": "uint256",
          "name": "",
          "type": "uint256"
        }
      ],
      "stateMutability": "view",
      "type": "function"
    },
    {
      "inputs": [
        {
          "internalType": "uint256",
          "name": "",
          "type": "uint256"
        }
      ],
      "name": "proposerList",
      "outputs": [
        {
          "internalType": "address",
          "name": "",
          "type": "address"
        }
      ],
      "stateMutability": "view",
      "type": "function"
    },
    {
      "inputs": [
        {
          "internalType": "bytes32",
          "name": "role",
          "type": "bytes32"
        },
        {
          "internalType": "address",
          "name": "account",
          "type": "address"
        }
      ],
      "name": "renounceRole",
      "outputs": [],
      "stateMutability": "nonpayable",
      "type": "function"
    },
    {
      "inputs": [
        {
          "internalType": "bytes32",
          "name": "role",
          "type": "bytes32"
        },
        {
          "internalType": "address",
          "name": "account",
          "type": "address"
        }
      ],
      "name": "revokeRole",
      "outputs": [],
      "stateMutability": "nonpayable",
      "type": "function"
    },
    {
      "inputs": [],
      "name": "sortedProposalList",
      "outputs": [
        {
          "internalType": "contract ISortedList",
          "name": "",
          "type": "address"
        }
      ],
      "stateMutability": "view",
      "type": "function"
    },
    {
      "inputs": [],
      "name": "sortedQueueAndExecutionList",
      "outputs": [
        {
          "internalType": "contract ISortedList",
          "name": "",
          "type": "address"
        }
      ],
      "stateMutability": "view",
      "type": "function"
    },
    {
      "inputs": [
        {
          "internalType": "bytes4",
          "name": "interfaceId",
          "type": "bytes4"
        }
      ],
      "name": "supportsInterface",
      "outputs": [
        {
          "internalType": "bool",
          "name": "",
          "type": "bool"
        }
      ],
      "stateMutability": "view",
      "type": "function"
    }
  ],
  "bytecode": "0x60016002819055610140604052600061012090815262000023916004919062000164565b503480156200003157600080fd5b5060405162001f8f38038062001f8f833981016040819052620000549162000202565b6001600160a01b0380861660805284811660a052831660c0526200007a600033620000c3565b620000a67f47f77047616880e37bcbbdd9286c33c9168e9c2e1a65e8473c916ac5028b83ba33620000c3565b6001600160a01b0391821660e05216610100525062000272915050565b6000828152602081815260408083206001600160a01b038516845290915290205460ff1662000160576000828152602081815260408083206001600160a01b03851684529091529020805460ff191660011790556200011f3390565b6001600160a01b0316816001600160a01b0316837f2f8788117e7eff1d82e926ec794901d17c78024a50270940304540a733656f0d60405160405180910390a45b5050565b828054828255906000526020600020908101928215620001bc579160200282015b82811115620001bc57825182546001600160a01b0319166001600160a01b0390911617825560209092019160019091019062000185565b50620001ca929150620001ce565b5090565b5b80821115620001ca5760008155600101620001cf565b80516001600160a01b0381168114620001fd57600080fd5b919050565b600080600080600060a086880312156200021b57600080fd5b6200022686620001e5565b94506200023660208701620001e5565b93506200024660408701620001e5565b92506200025660608701620001e5565b91506200026660808701620001e5565b90509295509295909350565b60805160a05160c05160e05161010051611ca7620002e8600039600081816102620152818161071f0152610a420152600081816102fd015281816106580152610a2101526000818161039e01526105c601526000818161023b01526105990152600081816101dc015261056c0152611ca76000f3fe608060405234801561001057600080fd5b50600436106101515760003560e01c806391d14854116100cd578063d547741f11610081578063e03f6e5211610066578063e03f6e5214610362578063f60e6cb814610375578063f68ded661461039957600080fd5b8063d547741f14610328578063da561f451461033b57600080fd5b8063a303c96f116100b2578063a303c96f146102e5578063acca8e42146102f8578063af640d0f1461031f57600080fd5b806391d1485414610299578063a217fddf146102dd57600080fd5b80633f7df3ff11610124578063431c183011610109578063431c18301461023657806353a212721461025d578063716059811461028457600080fd5b80633f7df3ff146101d75780633fd5688d1461022357600080fd5b806301ffc9a714610156578063248a9ca31461017e5780632f2ff15d146101af57806336568abe146101c4575b600080fd5b6101696101643660046113d1565b6103c0565b60405190151581526020015b60405180910390f35b6101a161018c366004611413565b60009081526020819052604090206001015490565b604051908152602001610175565b6101c26101bd366004611450565b610459565b005b6101c26101d2366004611450565b610483565b6101fe7f000000000000000000000000000000000000000000000000000000000000000081565b60405173ffffffffffffffffffffffffffffffffffffffff9091168152602001610175565b6101c261023136600461147c565b61053b565b6101fe7f000000000000000000000000000000000000000000000000000000000000000081565b6101fe7f000000000000000000000000000000000000000000000000000000000000000081565b61028c610b1a565b6040516101759190611526565b6101696102a7366004611450565b60009182526020828152604080842073ffffffffffffffffffffffffffffffffffffffff93909316845291905290205460ff1690565b6101a1600081565b6101fe6102f3366004611413565b610cf4565b6101fe7f000000000000000000000000000000000000000000000000000000000000000081565b6101a160025481565b6101c2610336366004611450565b610d2b565b6101a17f47f77047616880e37bcbbdd9286c33c9168e9c2e1a65e8473c916ac5028b83ba81565b6101fe610370366004611413565b610d50565b610388610383366004611413565b610d60565b6040516101759594939291906115f6565b6101fe7f000000000000000000000000000000000000000000000000000000000000000081565b60007fffffffff0000000000000000000000000000000000000000000000000000000082167f7965db0b00000000000000000000000000000000000000000000000000000000148061045357507f01ffc9a7000000000000000000000000000000000000000000000000000000007fffffffff000000000000000000000000000000000000000000000000000000008316145b92915050565b60008281526020819052604090206001015461047481610e34565b61047e8383610e41565b505050565b73ffffffffffffffffffffffffffffffffffffffff8116331461052d576040517f08c379a000000000000000000000000000000000000000000000000000000000815260206004820152602f60248201527f416363657373436f6e74726f6c3a2063616e206f6e6c792072656e6f756e636560448201527f20726f6c657320666f722073656c66000000000000000000000000000000000060648201526084015b60405180910390fd5b6105378282610f31565b5050565b7f47f77047616880e37bcbbdd9286c33c9168e9c2e1a65e8473c916ac5028b83ba61056581610e34565b60006105907f0000000000000000000000000000000000000000000000000000000000000000610fe8565b905060006105bd7f0000000000000000000000000000000000000000000000000000000000000000610fe8565b905060006105ea7f0000000000000000000000000000000000000000000000000000000000000000610fe8565b6040517f2f2ff15d0000000000000000000000000000000000000000000000000000000081527f47f77047616880e37bcbbdd9286c33c9168e9c2e1a65e8473c916ac5028b83ba600482015273ffffffffffffffffffffffffffffffffffffffff80831660248301529192507f000000000000000000000000000000000000000000000000000000000000000090911690632f2ff15d90604401600060405180830381600087803b15801561069e57600080fd5b505af11580156106b2573d6000803e3d6000fd5b50506040517f2f2ff15d0000000000000000000000000000000000000000000000000000000081527f47f77047616880e37bcbbdd9286c33c9168e9c2e1a65e8473c916ac5028b83ba600482015273ffffffffffffffffffffffffffffffffffffffff84811660248301527f0000000000000000000000000000000000000000000000000000000000000000169250632f2ff15d9150604401600060405180830381600087803b15801561076557600080fd5b505af1158015610779573d6000803e3d6000fd5b50506040805160a0810190915291508190506107958780611644565b8080601f016020809104026020016040519081016040528093929190818152602001838380828437600092018290525093855250505073ffffffffffffffffffffffffffffffffffffffff8087166020808501919091528682166040808601919091529186166060850152426080909401939093526002548252600190925220815181906108239082611780565b506020828101516001830180547fffffffffffffffffffffffff000000000000000000000000000000000000000090811673ffffffffffffffffffffffffffffffffffffffff9384161790915560408086015160028601805484169185169190911790556060860151600386018054909316908416179091556080909401516004909301929092559085169163fbf76dca916108c391890190890161189a565b604088013560608901356108da60808b018b611644565b6108e760a08d018d611644565b6108f460c08f018f611644565b6040518a63ffffffff1660e01b8152600401610918999897969594939291906118fe565b600060405180830381600087803b15801561093257600080fd5b505af1158015610946573d6000803e3d6000fd5b50505073ffffffffffffffffffffffffffffffffffffffff831690506393cb6a8a60e08701356003600461098060408b0160208c0161189a565b6040518563ffffffff1660e01b815260040161099f94939291906119c8565b600060405180830381600087803b1580156109b957600080fd5b505af11580156109cd573d6000803e3d6000fd5b50505073ffffffffffffffffffffffffffffffffffffffff8216905063255834436109f88780611644565b86868a61010001358b61012001358c61014001358d6020016020810190610a1f919061189a565b7f00000000000000000000000000000000000000000000000000000000000000007f00000000000000000000000000000000000000000000000000000000000000006040518b63ffffffff1660e01b8152600401610a869a99989796959493929190611a1b565b600060405180830381600087803b158015610aa057600080fd5b505af1158015610ab4573d6000803e3d6000fd5b505060028054925090506000610ac983611abf565b909155507e48209bd46e9c7af682cae0cfbd459137e1a1d6cfe0b90f9767f3ef1c6f6bf0610af78780611644565b848742604051610b0b959493929190611af7565b60405180910390a25050505050565b606060006001600254610b2d9190611b3c565b905060018167ffffffffffffffff811115610b4a57610b4a6116b0565b604051908082528060200260200182016040528015610bc257816020015b6040805160a081018252606080825260006020808401829052938301819052908201819052608082015282527fffffffffffffffffffffffffffffffffffffffffffffffffffffffffffffffff909201910181610b685790505b50925060005b82811015610cee5760008181526020839052604090819020815160a08101909252805482908290610bf8906116df565b80601f0160208091040260200160405190810160405280929190818152602001828054610c24906116df565b8015610c715780601f10610c4657610100808354040283529160200191610c71565b820191906000526020600020905b815481529060010190602001808311610c5457829003601f168201915b5050509183525050600182015473ffffffffffffffffffffffffffffffffffffffff908116602083015260028301548116604083015260038301541660608201526004909101546080909101528451859083908110610cd257610cd2611b4f565b602002602001018190525080610ce790611abf565b9050610bc8565b50505090565b60048181548110610d0457600080fd5b60009182526020909120015473ffffffffffffffffffffffffffffffffffffffff16905081565b600082815260208190526040902060010154610d4681610e34565b61047e8383610f31565b60038181548110610d0457600080fd5b600160205260009081526040902080548190610d7b906116df565b80601f0160208091040260200160405190810160405280929190818152602001828054610da7906116df565b8015610df45780601f10610dc957610100808354040283529160200191610df4565b820191906000526020600020905b815481529060010190602001808311610dd757829003601f168201915b505050600184015460028501546003860154600490960154949573ffffffffffffffffffffffffffffffffffffffff928316959183169450909116915085565b610e3e81336110b0565b50565b60008281526020818152604080832073ffffffffffffffffffffffffffffffffffffffff8516845290915290205460ff166105375760008281526020818152604080832073ffffffffffffffffffffffffffffffffffffffff85168452909152902080547fffffffffffffffffffffffffffffffffffffffffffffffffffffffffffffff00166001179055610ed33390565b73ffffffffffffffffffffffffffffffffffffffff168173ffffffffffffffffffffffffffffffffffffffff16837f2f8788117e7eff1d82e926ec794901d17c78024a50270940304540a733656f0d60405160405180910390a45050565b60008281526020818152604080832073ffffffffffffffffffffffffffffffffffffffff8516845290915290205460ff16156105375760008281526020818152604080832073ffffffffffffffffffffffffffffffffffffffff8516808552925280832080547fffffffffffffffffffffffffffffffffffffffffffffffffffffffffffffff0016905551339285917ff6391f5c32d9c69d2a47ea670b442974b53935d1edc7fd64eb21e047a839171b9190a45050565b6000763d602d80600a3d3981f3363d3d373d3d3d363d730000008260601b60e81c176000526e5af43d82803e903d91602b57fd5bf38260781b17602052603760096000f0905073ffffffffffffffffffffffffffffffffffffffff81166110ab576040517f08c379a000000000000000000000000000000000000000000000000000000000815260206004820152601660248201527f455243313136373a20637265617465206661696c6564000000000000000000006044820152606401610524565b919050565b60008281526020818152604080832073ffffffffffffffffffffffffffffffffffffffff8516845290915290205460ff16610537576110ee81611168565b6110f9836020611187565b60405160200161110a929190611b7e565b604080517fffffffffffffffffffffffffffffffffffffffffffffffffffffffffffffffe0818403018152908290527f08c379a000000000000000000000000000000000000000000000000000000000825261052491600401611bff565b606061045373ffffffffffffffffffffffffffffffffffffffff831660145b60606000611196836002611c12565b6111a1906002611c29565b67ffffffffffffffff8111156111b9576111b96116b0565b6040519080825280601f01601f1916602001820160405280156111e3576020820181803683370190505b5090507f30000000000000000000000000000000000000000000000000000000000000008160008151811061121a5761121a611b4f565b60200101907effffffffffffffffffffffffffffffffffffffffffffffffffffffffffffff1916908160001a9053507f78000000000000000000000000000000000000000000000000000000000000008160018151811061127d5761127d611b4f565b60200101907effffffffffffffffffffffffffffffffffffffffffffffffffffffffffffff1916908160001a90535060006112b9846002611c12565b6112c4906001611c29565b90505b6001811115611361577f303132333435363738396162636465660000000000000000000000000000000085600f166010811061130557611305611b4f565b1a60f81b82828151811061131b5761131b611b4f565b60200101907effffffffffffffffffffffffffffffffffffffffffffffffffffffffffffff1916908160001a90535060049490941c9361135a81611c3c565b90506112c7565b5083156113ca576040517f08c379a000000000000000000000000000000000000000000000000000000000815260206004820181905260248201527f537472696e67733a20686578206c656e67746820696e73756666696369656e746044820152606401610524565b9392505050565b6000602082840312156113e357600080fd5b81357fffffffff00000000000000000000000000000000000000000000000000000000811681146113ca57600080fd5b60006020828403121561142557600080fd5b5035919050565b803573ffffffffffffffffffffffffffffffffffffffff811681146110ab57600080fd5b6000806040838503121561146357600080fd5b823591506114736020840161142c565b90509250929050565b60006020828403121561148e57600080fd5b813567ffffffffffffffff8111156114a557600080fd5b820161016081850312156113ca57600080fd5b60005b838110156114d35781810151838201526020016114bb565b50506000910152565b600081518084526114f48160208601602086016114b8565b601f017fffffffffffffffffffffffffffffffffffffffffffffffffffffffffffffffe0169290920160200192915050565b60006020808301818452808551808352604092508286019150828160051b87010184880160005b838110156115e8577fffffffffffffffffffffffffffffffffffffffffffffffffffffffffffffffc0898403018552815160a08151818652611591828701826114dc565b838b015173ffffffffffffffffffffffffffffffffffffffff908116888d01528a85015181168b8901526060808601519091169088015260809384015193909601929092525050938601939086019060010161154d565b509098975050505050505050565b60a08152600061160960a08301886114dc565b73ffffffffffffffffffffffffffffffffffffffff968716602084015294861660408301525091909316606082015260800191909152919050565b60008083357fffffffffffffffffffffffffffffffffffffffffffffffffffffffffffffffe184360301811261167957600080fd5b83018035915067ffffffffffffffff82111561169457600080fd5b6020019150368190038213156116a957600080fd5b9250929050565b7f4e487b7100000000000000000000000000000000000000000000000000000000600052604160045260246000fd5b600181811c908216806116f357607f821691505b60208210810361172c577f4e487b7100000000000000000000000000000000000000000000000000000000600052602260045260246000fd5b50919050565b601f82111561047e57600081815260208120601f850160051c810160208610156117595750805b601f850160051c820191505b8181101561177857828155600101611765565b505050505050565b815167ffffffffffffffff81111561179a5761179a6116b0565b6117ae816117a884546116df565b84611732565b602080601f83116001811461180157600084156117cb5750858301515b7fffffffffffffffffffffffffffffffffffffffffffffffffffffffffffffffff600386901b1c1916600185901b178555611778565b6000858152602081207fffffffffffffffffffffffffffffffffffffffffffffffffffffffffffffffe08616915b8281101561184e5788860151825594840194600190910190840161182f565b508582101561188a57878501517fffffffffffffffffffffffffffffffffffffffffffffffffffffffffffffffff600388901b60f8161c191681555b5050505050600190811b01905550565b6000602082840312156118ac57600080fd5b6113ca8261142c565b8183528181602085013750600060208284010152600060207fffffffffffffffffffffffffffffffffffffffffffffffffffffffffffffffe0601f840116840101905092915050565b73ffffffffffffffffffffffffffffffffffffffff8a16815288602082015287604082015260c06060820152600061193a60c08301888a6118b5565b828103608084015261194d8187896118b5565b905082810360a08401526119628185876118b5565b9c9b505050505050505050505050565b6000815480845260208085019450836000528060002060005b838110156119bd57815473ffffffffffffffffffffffffffffffffffffffff168752958201956001918201910161198b565b509495945050505050565b8481526080602082015260006119e16080830186611972565b82810360408401526119f38186611972565b91505073ffffffffffffffffffffffffffffffffffffffff8316606083015295945050505050565b6000610120808352611a308184018d8f6118b5565b73ffffffffffffffffffffffffffffffffffffffff9b8c166020850152998b16604084015250506060810196909652608086019490945260a0850192909252851660c0840152841660e08301529092166101009092019190915292915050565b7f4e487b7100000000000000000000000000000000000000000000000000000000600052601160045260246000fd5b60007fffffffffffffffffffffffffffffffffffffffffffffffffffffffffffffffff8203611af057611af0611a90565b5060010190565b608081526000611b0b6080830187896118b5565b73ffffffffffffffffffffffffffffffffffffffff9586166020840152939094166040820152606001529392505050565b8181038181111561045357610453611a90565b7f4e487b7100000000000000000000000000000000000000000000000000000000600052603260045260246000fd5b7f416363657373436f6e74726f6c3a206163636f756e7420000000000000000000815260008351611bb68160178501602088016114b8565b7f206973206d697373696e6720726f6c65200000000000000000000000000000006017918401918201528351611bf38160288401602088016114b8565b01602801949350505050565b6020815260006113ca60208301846114dc565b808202811582820484141761045357610453611a90565b8082018082111561045357610453611a90565b600081611c4b57611c4b611a90565b507fffffffffffffffffffffffffffffffffffffffffffffffffffffffffffffffff019056fea26469706673582212208359414d46925e1dd9ef1486e3fdd766b542d0e458ed296eb4ad36388197976464736f6c63430008110033",
  "linkReferences": {},
  "deployedLinkReferences": {},
  "networkId": 11155111,
  "address": "0xEBD1B300EE65b614E7f403dd9e3Ad7967728CeA6"
}