{
  "_format": "hh-sol-artifact-1",
  "contractName": "GovernanceTimeLock",
  "sourceName": "contracts/Governance/GovernanceTimeLock.sol",
  "abi": [
    {
      "inputs": [
        {
          "internalType": "uint256",
          "name": "minDelay",
          "type": "uint256"
        },
        {
          "internalType": "address[]",
          "name": "proposers",
          "type": "address[]"
        },
        {
          "internalType": "address[]",
          "name": "executors",
          "type": "address[]"
        },
        {
          "internalType": "address",
          "name": "owner",
          "type": "address"
        }
      ],
      "stateMutability": "nonpayable",
      "type": "constructor"
    },
    {
      "inputs": [],
      "name": "AlreadyInitialized",
      "type": "error"
    },
    {
      "anonymous": false,
      "inputs": [
        {
          "indexed": true,
          "internalType": "bytes32",
          "name": "id",
          "type": "bytes32"
        },
        {
          "indexed": true,
          "internalType": "uint256",
          "name": "index",
          "type": "uint256"
        },
        {
          "indexed": false,
          "internalType": "address",
          "name": "target",
          "type": "address"
        },
        {
          "indexed": false,
          "internalType": "uint256",
          "name": "value",
          "type": "uint256"
        },
        {
          "indexed": false,
          "internalType": "bytes",
          "name": "data",
          "type": "bytes"
        }
      ],
      "name": "CallExecuted",
      "type": "event"
    },
    {
      "anonymous": false,
      "inputs": [
        {
          "indexed": true,
          "internalType": "bytes32",
          "name": "id",
          "type": "bytes32"
        },
        {
          "indexed": false,
          "internalType": "bytes32",
          "name": "salt",
          "type": "bytes32"
        }
      ],
      "name": "CallSalt",
      "type": "event"
    },
    {
      "anonymous": false,
      "inputs": [
        {
          "indexed": true,
          "internalType": "bytes32",
          "name": "id",
          "type": "bytes32"
        },
        {
          "indexed": true,
          "internalType": "uint256",
          "name": "index",
          "type": "uint256"
        },
        {
          "indexed": false,
          "internalType": "address",
          "name": "target",
          "type": "address"
        },
        {
          "indexed": false,
          "internalType": "uint256",
          "name": "value",
          "type": "uint256"
        },
        {
          "indexed": false,
          "internalType": "bytes",
          "name": "data",
          "type": "bytes"
        },
        {
          "indexed": false,
          "internalType": "bytes32",
          "name": "predecessor",
          "type": "bytes32"
        },
        {
          "indexed": false,
          "internalType": "uint256",
          "name": "delay",
          "type": "uint256"
        }
      ],
      "name": "CallScheduled",
      "type": "event"
    },
    {
      "anonymous": false,
      "inputs": [
        {
          "indexed": true,
          "internalType": "bytes32",
          "name": "id",
          "type": "bytes32"
        }
      ],
      "name": "Cancelled",
      "type": "event"
    },
    {
      "anonymous": false,
      "inputs": [
        {
          "indexed": false,
          "internalType": "uint256",
          "name": "oldDuration",
          "type": "uint256"
        },
        {
          "indexed": false,
          "internalType": "uint256",
          "name": "newDuration",
          "type": "uint256"
        }
      ],
      "name": "MinDelayChange",
      "type": "event"
    },
    {
      "anonymous": false,
      "inputs": [
        {
          "indexed": true,
          "internalType": "bytes32",
          "name": "role",
          "type": "bytes32"
        },
        {
          "indexed": true,
          "internalType": "bytes32",
          "name": "previousAdminRole",
          "type": "bytes32"
        },
        {
          "indexed": true,
          "internalType": "bytes32",
          "name": "newAdminRole",
          "type": "bytes32"
        }
      ],
      "name": "RoleAdminChanged",
      "type": "event"
    },
    {
      "anonymous": false,
      "inputs": [
        {
          "indexed": true,
          "internalType": "bytes32",
          "name": "role",
          "type": "bytes32"
        },
        {
          "indexed": true,
          "internalType": "address",
          "name": "account",
          "type": "address"
        },
        {
          "indexed": true,
          "internalType": "address",
          "name": "sender",
          "type": "address"
        }
      ],
      "name": "RoleGranted",
      "type": "event"
    },
    {
      "anonymous": false,
      "inputs": [
        {
          "indexed": true,
          "internalType": "bytes32",
          "name": "role",
          "type": "bytes32"
        },
        {
          "indexed": true,
          "internalType": "address",
          "name": "account",
          "type": "address"
        },
        {
          "indexed": true,
          "internalType": "address",
          "name": "sender",
          "type": "address"
        }
      ],
      "name": "RoleRevoked",
      "type": "event"
    },
    {
      "inputs": [],
      "name": "CANCELLER_ROLE",
      "outputs": [
        {
          "internalType": "bytes32",
          "name": "",
          "type": "bytes32"
        }
      ],
      "stateMutability": "view",
      "type": "function"
    },
    {
      "inputs": [],
      "name": "DEFAULT_ADMIN_ROLE",
      "outputs": [
        {
          "internalType": "bytes32",
          "name": "",
          "type": "bytes32"
        }
      ],
      "stateMutability": "view",
      "type": "function"
    },
    {
      "inputs": [],
      "name": "EXECUTOR_ROLE",
      "outputs": [
        {
          "internalType": "bytes32",
          "name": "",
          "type": "bytes32"
        }
      ],
      "stateMutability": "view",
      "type": "function"
    },
    {
      "inputs": [],
      "name": "PROPOSER_ROLE",
      "outputs": [
        {
          "internalType": "bytes32",
          "name": "",
          "type": "bytes32"
        }
      ],
      "stateMutability": "view",
      "type": "function"
    },
    {
      "inputs": [],
      "name": "TIMELOCK_ADMIN_ROLE",
      "outputs": [
        {
          "internalType": "bytes32",
          "name": "",
          "type": "bytes32"
        }
      ],
      "stateMutability": "view",
      "type": "function"
    },
    {
      "inputs": [
        {
          "internalType": "bytes32",
          "name": "id",
          "type": "bytes32"
        }
      ],
      "name": "cancel",
      "outputs": [],
      "stateMutability": "nonpayable",
      "type": "function"
    },
    {
      "inputs": [
        {
          "internalType": "address",
          "name": "target",
          "type": "address"
        },
        {
          "internalType": "uint256",
          "name": "value",
          "type": "uint256"
        },
        {
          "internalType": "bytes",
          "name": "payload",
          "type": "bytes"
        },
        {
          "internalType": "bytes32",
          "name": "predecessor",
          "type": "bytes32"
        },
        {
          "internalType": "bytes32",
          "name": "salt",
          "type": "bytes32"
        }
      ],
      "name": "execute",
      "outputs": [],
      "stateMutability": "payable",
      "type": "function"
    },
    {
      "inputs": [
        {
          "internalType": "address[]",
          "name": "targets",
          "type": "address[]"
        },
        {
          "internalType": "uint256[]",
          "name": "values",
          "type": "uint256[]"
        },
        {
          "internalType": "bytes[]",
          "name": "payloads",
          "type": "bytes[]"
        },
        {
          "internalType": "bytes32",
          "name": "predecessor",
          "type": "bytes32"
        },
        {
          "internalType": "bytes32",
          "name": "salt",
          "type": "bytes32"
        }
      ],
      "name": "executeBatch",
      "outputs": [],
      "stateMutability": "payable",
      "type": "function"
    },
    {
      "inputs": [],
      "name": "getMinDelay",
      "outputs": [
        {
          "internalType": "uint256",
          "name": "",
          "type": "uint256"
        }
      ],
      "stateMutability": "view",
      "type": "function"
    },
    {
      "inputs": [
        {
          "internalType": "bytes32",
          "name": "role",
          "type": "bytes32"
        }
      ],
      "name": "getRoleAdmin",
      "outputs": [
        {
          "internalType": "bytes32",
          "name": "",
          "type": "bytes32"
        }
      ],
      "stateMutability": "view",
      "type": "function"
    },
    {
      "inputs": [
        {
          "internalType": "bytes32",
          "name": "id",
          "type": "bytes32"
        }
      ],
      "name": "getTimestamp",
      "outputs": [
        {
          "internalType": "uint256",
          "name": "",
          "type": "uint256"
        }
      ],
      "stateMutability": "view",
      "type": "function"
    },
    {
      "inputs": [
        {
          "internalType": "bytes32",
          "name": "role",
          "type": "bytes32"
        },
        {
          "internalType": "address",
          "name": "account",
          "type": "address"
        }
      ],
      "name": "grantRole",
      "outputs": [],
      "stateMutability": "nonpayable",
      "type": "function"
    },
    {
      "inputs": [
        {
          "internalType": "bytes32",
          "name": "role",
          "type": "bytes32"
        },
        {
          "internalType": "address",
          "name": "account",
          "type": "address"
        }
      ],
      "name": "hasRole",
      "outputs": [
        {
          "internalType": "bool",
          "name": "",
          "type": "bool"
        }
      ],
      "stateMutability": "view",
      "type": "function"
    },
    {
      "inputs": [
        {
          "internalType": "address",
          "name": "target",
          "type": "address"
        },
        {
          "internalType": "uint256",
          "name": "value",
          "type": "uint256"
        },
        {
          "internalType": "bytes",
          "name": "data",
          "type": "bytes"
        },
        {
          "internalType": "bytes32",
          "name": "predecessor",
          "type": "bytes32"
        },
        {
          "internalType": "bytes32",
          "name": "salt",
          "type": "bytes32"
        }
      ],
      "name": "hashOperation",
      "outputs": [
        {
          "internalType": "bytes32",
          "name": "",
          "type": "bytes32"
        }
      ],
      "stateMutability": "pure",
      "type": "function"
    },
    {
      "inputs": [
        {
          "internalType": "address[]",
          "name": "targets",
          "type": "address[]"
        },
        {
          "internalType": "uint256[]",
          "name": "values",
          "type": "uint256[]"
        },
        {
          "internalType": "bytes[]",
          "name": "payloads",
          "type": "bytes[]"
        },
        {
          "internalType": "bytes32",
          "name": "predecessor",
          "type": "bytes32"
        },
        {
          "internalType": "bytes32",
          "name": "salt",
          "type": "bytes32"
        }
      ],
      "name": "hashOperationBatch",
      "outputs": [
        {
          "internalType": "bytes32",
          "name": "",
          "type": "bytes32"
        }
      ],
      "stateMutability": "pure",
      "type": "function"
    },
    {
      "inputs": [
        {
          "internalType": "uint256",
          "name": "minDelay",
          "type": "uint256"
        },
        {
          "internalType": "address[]",
          "name": "proposers",
          "type": "address[]"
        },
        {
          "internalType": "address[]",
          "name": "executors",
          "type": "address[]"
        },
        {
          "internalType": "address",
          "name": "owner",
          "type": "address"
        }
      ],
      "name": "init",
      "outputs": [],
      "stateMutability": "nonpayable",
      "type": "function"
    },
    {
      "inputs": [
        {
          "internalType": "bytes32",
          "name": "id",
          "type": "bytes32"
        }
      ],
      "name": "isOperation",
      "outputs": [
        {
          "internalType": "bool",
          "name": "",
          "type": "bool"
        }
      ],
      "stateMutability": "view",
      "type": "function"
    },
    {
      "inputs": [
        {
          "internalType": "bytes32",
          "name": "id",
          "type": "bytes32"
        }
      ],
      "name": "isOperationDone",
      "outputs": [
        {
          "internalType": "bool",
          "name": "",
          "type": "bool"
        }
      ],
      "stateMutability": "view",
      "type": "function"
    },
    {
      "inputs": [
        {
          "internalType": "bytes32",
          "name": "id",
          "type": "bytes32"
        }
      ],
      "name": "isOperationPending",
      "outputs": [
        {
          "internalType": "bool",
          "name": "",
          "type": "bool"
        }
      ],
      "stateMutability": "view",
      "type": "function"
    },
    {
      "inputs": [
        {
          "internalType": "bytes32",
          "name": "id",
          "type": "bytes32"
        }
      ],
      "name": "isOperationReady",
      "outputs": [
        {
          "internalType": "bool",
          "name": "",
          "type": "bool"
        }
      ],
      "stateMutability": "view",
      "type": "function"
    },
    {
      "inputs": [
        {
          "internalType": "address",
          "name": "",
          "type": "address"
        },
        {
          "internalType": "address",
          "name": "",
          "type": "address"
        },
        {
          "internalType": "uint256[]",
          "name": "",
          "type": "uint256[]"
        },
        {
          "internalType": "uint256[]",
          "name": "",
          "type": "uint256[]"
        },
        {
          "internalType": "bytes",
          "name": "",
          "type": "bytes"
        }
      ],
      "name": "onERC1155BatchReceived",
      "outputs": [
        {
          "internalType": "bytes4",
          "name": "",
          "type": "bytes4"
        }
      ],
      "stateMutability": "nonpayable",
      "type": "function"
    },
    {
      "inputs": [
        {
          "internalType": "address",
          "name": "",
          "type": "address"
        },
        {
          "internalType": "address",
          "name": "",
          "type": "address"
        },
        {
          "internalType": "uint256",
          "name": "",
          "type": "uint256"
        },
        {
          "internalType": "uint256",
          "name": "",
          "type": "uint256"
        },
        {
          "internalType": "bytes",
          "name": "",
          "type": "bytes"
        }
      ],
      "name": "onERC1155Received",
      "outputs": [
        {
          "internalType": "bytes4",
          "name": "",
          "type": "bytes4"
        }
      ],
      "stateMutability": "nonpayable",
      "type": "function"
    },
    {
      "inputs": [
        {
          "internalType": "address",
          "name": "",
          "type": "address"
        },
        {
          "internalType": "address",
          "name": "",
          "type": "address"
        },
        {
          "internalType": "uint256",
          "name": "",
          "type": "uint256"
        },
        {
          "internalType": "bytes",
          "name": "",
          "type": "bytes"
        }
      ],
      "name": "onERC721Received",
      "outputs": [
        {
          "internalType": "bytes4",
          "name": "",
          "type": "bytes4"
        }
      ],
      "stateMutability": "nonpayable",
      "type": "function"
    },
    {
      "inputs": [
        {
          "internalType": "bytes32",
          "name": "role",
          "type": "bytes32"
        },
        {
          "internalType": "address",
          "name": "account",
          "type": "address"
        }
      ],
      "name": "renounceRole",
      "outputs": [],
      "stateMutability": "nonpayable",
      "type": "function"
    },
    {
      "inputs": [
        {
          "internalType": "bytes32",
          "name": "role",
          "type": "bytes32"
        },
        {
          "internalType": "address",
          "name": "account",
          "type": "address"
        }
      ],
      "name": "revokeRole",
      "outputs": [],
      "stateMutability": "nonpayable",
      "type": "function"
    },
    {
      "inputs": [
        {
          "internalType": "address",
          "name": "target",
          "type": "address"
        },
        {
          "internalType": "uint256",
          "name": "value",
          "type": "uint256"
        },
        {
          "internalType": "bytes",
          "name": "data",
          "type": "bytes"
        },
        {
          "internalType": "bytes32",
          "name": "predecessor",
          "type": "bytes32"
        },
        {
          "internalType": "bytes32",
          "name": "salt",
          "type": "bytes32"
        },
        {
          "internalType": "uint256",
          "name": "delay",
          "type": "uint256"
        }
      ],
      "name": "schedule",
      "outputs": [],
      "stateMutability": "nonpayable",
      "type": "function"
    },
    {
      "inputs": [
        {
          "internalType": "address[]",
          "name": "targets",
          "type": "address[]"
        },
        {
          "internalType": "uint256[]",
          "name": "values",
          "type": "uint256[]"
        },
        {
          "internalType": "bytes[]",
          "name": "payloads",
          "type": "bytes[]"
        },
        {
          "internalType": "bytes32",
          "name": "predecessor",
          "type": "bytes32"
        },
        {
          "internalType": "bytes32",
          "name": "salt",
          "type": "bytes32"
        },
        {
          "internalType": "uint256",
          "name": "delay",
          "type": "uint256"
        }
      ],
      "name": "scheduleBatch",
      "outputs": [],
      "stateMutability": "nonpayable",
      "type": "function"
    },
    {
      "inputs": [
        {
          "internalType": "bytes4",
          "name": "interfaceId",
          "type": "bytes4"
        }
      ],
      "name": "supportsInterface",
      "outputs": [
        {
          "internalType": "bool",
          "name": "",
          "type": "bool"
        }
      ],
      "stateMutability": "view",
      "type": "function"
    },
    {
      "inputs": [
        {
          "internalType": "uint256",
          "name": "newDelay",
          "type": "uint256"
        }
      ],
      "name": "updateDelay",
      "outputs": [],
      "stateMutability": "nonpayable",
      "type": "function"
    },
    {
      "stateMutability": "payable",
      "type": "receive"
    }
  ],
  "bytecode": "0x60806040523480156200001157600080fd5b5060405162002f0938038062002f09833981016040819052620000349162000410565b838383836200005360008051602062002e898339815191528062000235565b6200007d60008051602062002ea983398151915260008051602062002e8983398151915262000235565b620000a760008051602062002ec983398151915260008051602062002e8983398151915262000235565b620000d160008051602062002ee983398151915260008051602062002e8983398151915262000235565b620000ec60008051602062002e898339815191523062000280565b6001600160a01b0381161562000117576200011760008051602062002e898339815191528262000280565b60005b83518110156200019d576200016160008051602062002ea98339815191528583815181106200014d576200014d62000497565b60200260200101516200028060201b60201c565b6200018a60008051602062002ee98339815191528583815181106200014d576200014d62000497565b6200019581620004ad565b90506200011a565b5060005b8251811015620001e757620001d460008051602062002ec98339815191528483815181106200014d576200014d62000497565b620001df81620004ad565b9050620001a1565b5060028490556040805160008152602081018690527f11c24f4ead16507c69ac467fbd5e4eed5fb5c699626d2cc6d66421df253886d5910160405180910390a15050505050505050620004d5565b600082815260208190526040808220600101805490849055905190918391839186917fbd79b86ffe0ab8e8776151514217cd7cacd52c909f66475c3af44e129f0b00ff9190a4505050565b6200028c828262000290565b5050565b6000828152602081815260408083206001600160a01b038516845290915290205460ff166200028c576000828152602081815260408083206001600160a01b03851684529091529020805460ff19166001179055620002ec3390565b6001600160a01b0316816001600160a01b0316837f2f8788117e7eff1d82e926ec794901d17c78024a50270940304540a733656f0d60405160405180910390a45050565b634e487b7160e01b600052604160045260246000fd5b80516001600160a01b03811681146200035e57600080fd5b919050565b600082601f8301126200037557600080fd5b815160206001600160401b038083111562000394576200039462000330565b8260051b604051601f19603f83011681018181108482111715620003bc57620003bc62000330565b604052938452858101830193838101925087851115620003db57600080fd5b83870191505b848210156200040557620003f58262000346565b83529183019190830190620003e1565b979650505050505050565b600080600080608085870312156200042757600080fd5b845160208601519094506001600160401b03808211156200044757600080fd5b620004558883890162000363565b945060408701519150808211156200046c57600080fd5b506200047b8782880162000363565b9250506200048c6060860162000346565b905092959194509250565b634e487b7160e01b600052603260045260246000fd5b600060018201620004ce57634e487b7160e01b600052601160045260246000fd5b5060010190565b6129a480620004e56000396000f3fe6080604052600436106101c65760003560e01c80638065657f116100f7578063b1c5f42711610095578063d547741f11610064578063d547741f14610628578063e38335e514610648578063f23a6e611461065b578063f27a0c92146106a057600080fd5b8063b1c5f42714610576578063bc197c8114610596578063c4d252f5146105db578063d45c4435146105fb57600080fd5b806391d14854116100d157806391d14854146104bc57806393cb6a8a1461050d578063a217fddf1461052d578063b08e51c01461054257600080fd5b80638065657f146104485780638f2a0bb0146104685780638f61f4f51461048857600080fd5b8063248a9ca31161016457806331d507501161013e57806331d50750146103c857806336568abe146103e8578063584b153e1461040857806364d623531461042857600080fd5b8063248a9ca3146103475780632ab0f529146103775780632f2ff15d146103a857600080fd5b80630d3cf6fc116101a05780630d3cf6fc1461026b578063134008d31461029f57806313bc9f20146102b2578063150b7a02146102d257600080fd5b806301d5062a146101d257806301ffc9a7146101f457806307bd02651461022957600080fd5b366101cd57005b600080fd5b3480156101de57600080fd5b506101f26101ed366004611db1565b6106b5565b005b34801561020057600080fd5b5061021461020f366004611e26565b61078b565b60405190151581526020015b60405180910390f35b34801561023557600080fd5b5061025d7fd8aa0f3194971a2a116679f7c2090f6939c8d4e01a2a8d7e41d55e5351469e6381565b604051908152602001610220565b34801561027757600080fd5b5061025d7f5f58e3a2316349923ce3780f8d587db2d72378aed66a8261c916544fa6846ca581565b6101f26102ad366004611e68565b6107e7565b3480156102be57600080fd5b506102146102cd366004611ed4565b6108df565b3480156102de57600080fd5b506103166102ed366004611ff9565b7f150b7a0200000000000000000000000000000000000000000000000000000000949350505050565b6040517fffffffff000000000000000000000000000000000000000000000000000000009091168152602001610220565b34801561035357600080fd5b5061025d610362366004611ed4565b60009081526020819052604090206001015490565b34801561038357600080fd5b50610214610392366004611ed4565b6000908152600160208190526040909120541490565b3480156103b457600080fd5b506101f26103c3366004612061565b610905565b3480156103d457600080fd5b506102146103e3366004611ed4565b61092f565b3480156103f457600080fd5b506101f2610403366004612061565b610948565b34801561041457600080fd5b50610214610423366004611ed4565b6109e6565b34801561043457600080fd5b506101f2610443366004611ed4565b6109fc565b34801561045457600080fd5b5061025d610463366004611e68565b610ab2565b34801561047457600080fd5b506101f26104833660046120d2565b610af1565b34801561049457600080fd5b5061025d7fb09aa5aeb3702cfd50b6b62bc4532604938f21248a27a1d5ca736082b6819cc181565b3480156104c857600080fd5b506102146104d7366004612061565b60009182526020828152604080842073ffffffffffffffffffffffffffffffffffffffff93909316845291905290205460ff1690565b34801561051957600080fd5b506101f261052836600461221a565b610d30565b34801561053957600080fd5b5061025d600081565b34801561054e57600080fd5b5061025d7ffd643c72710c63c0180259aba6b2d05451e3591a24e58b62239378085726f78381565b34801561058257600080fd5b5061025d610591366004612298565b61105f565b3480156105a257600080fd5b506103166105b136600461239c565b7fbc197c810000000000000000000000000000000000000000000000000000000095945050505050565b3480156105e757600080fd5b506101f26105f6366004611ed4565b6110a4565b34801561060757600080fd5b5061025d610616366004611ed4565b60009081526001602052604090205490565b34801561063457600080fd5b506101f2610643366004612061565b611185565b6101f2610656366004612298565b6111aa565b34801561066757600080fd5b50610316610676366004612446565b7ff23a6e610000000000000000000000000000000000000000000000000000000095945050505050565b3480156106ac57600080fd5b5060025461025d565b7fb09aa5aeb3702cfd50b6b62bc4532604938f21248a27a1d5ca736082b6819cc16106df81611423565b60006106ef898989898989610ab2565b90506106fb8184611430565b6000817f4cf4410cc57040e44862ef0f45f3dd5a5e02db8eb8add648d4b0e236f1d07dca8b8b8b8b8b8a604051610737969594939291906124f4565b60405180910390a3831561078057807f20fda5fd27a1ea7bf5b9567f143ac5470bb059374a27e8f67cb44f946f6d03878560405161077791815260200190565b60405180910390a25b505050505050505050565b60007fffffffff0000000000000000000000000000000000000000000000000000000082167f4e2312e00000000000000000000000000000000000000000000000000000000014806107e157506107e182611544565b92915050565b600080527fdae2aa361dfd1ca020a396615627d436107c35eff9fe7738a3512819782d70696020527f5ba6852781629bcdcd4bdaa6de76d786f1c64b16acdac474e55bebc0ea157951547fd8aa0f3194971a2a116679f7c2090f6939c8d4e01a2a8d7e41d55e5351469e639060ff166108645761086481336115db565b6000610874888888888888610ab2565b90506108808185611679565b61088c88888888611782565b6000817fc2617efa69bab66782fa219543714338489c4e9e178271560a91b82c3f612b588a8a8a8a6040516108c4949392919061253f565b60405180910390a36108d58161186c565b5050505050505050565b6000818152600160205260408120546001811180156108fe5750428111155b9392505050565b60008281526020819052604090206001015461092081611423565b61092a83836118fb565b505050565b60008181526001602052604081205481905b1192915050565b73ffffffffffffffffffffffffffffffffffffffff811633146109d85760405162461bcd60e51b815260206004820152602f60248201527f416363657373436f6e74726f6c3a2063616e206f6e6c792072656e6f756e636560448201527f20726f6c657320666f722073656c66000000000000000000000000000000000060648201526084015b60405180910390fd5b6109e282826119eb565b5050565b6000818152600160208190526040822054610941565b333014610a715760405162461bcd60e51b815260206004820152602b60248201527f54696d656c6f636b436f6e74726f6c6c65723a2063616c6c6572206d7573742060448201527f62652074696d656c6f636b00000000000000000000000000000000000000000060648201526084016109cf565b60025460408051918252602082018390527f11c24f4ead16507c69ac467fbd5e4eed5fb5c699626d2cc6d66421df253886d5910160405180910390a1600255565b6000868686868686604051602001610acf969594939291906124f4565b6040516020818303038152906040528051906020012090509695505050505050565b7fb09aa5aeb3702cfd50b6b62bc4532604938f21248a27a1d5ca736082b6819cc1610b1b81611423565b888714610b905760405162461bcd60e51b815260206004820152602360248201527f54696d656c6f636b436f6e74726f6c6c65723a206c656e677468206d69736d6160448201527f746368000000000000000000000000000000000000000000000000000000000060648201526084016109cf565b888514610c055760405162461bcd60e51b815260206004820152602360248201527f54696d656c6f636b436f6e74726f6c6c65723a206c656e677468206d69736d6160448201527f746368000000000000000000000000000000000000000000000000000000000060648201526084016109cf565b6000610c178b8b8b8b8b8b8b8b61105f565b9050610c238184611430565b60005b8a811015610ce15780827f4cf4410cc57040e44862ef0f45f3dd5a5e02db8eb8add648d4b0e236f1d07dca8e8e85818110610c6357610c6361257f565b9050602002016020810190610c7891906125ae565b8d8d86818110610c8a57610c8a61257f565b905060200201358c8c87818110610ca357610ca361257f565b9050602002810190610cb591906125c9565b8c8b604051610cc9969594939291906124f4565b60405180910390a3610cda8161265d565b9050610c26565b508315610d2357807f20fda5fd27a1ea7bf5b9567f143ac5470bb059374a27e8f67cb44f946f6d038785604051610d1a91815260200190565b60405180910390a25b5050505050505050505050565b60035460ff1615610d6d576040517f0dc149f000000000000000000000000000000000000000000000000000000000815260040160405180910390fd5b600380547fffffffffffffffffffffffffffffffffffffffffffffffffffffffffffffff00166001179055610dc27f5f58e3a2316349923ce3780f8d587db2d72378aed66a8261c916544fa6846ca580611aa2565b610e0c7fb09aa5aeb3702cfd50b6b62bc4532604938f21248a27a1d5ca736082b6819cc17f5f58e3a2316349923ce3780f8d587db2d72378aed66a8261c916544fa6846ca5611aa2565b610e567fd8aa0f3194971a2a116679f7c2090f6939c8d4e01a2a8d7e41d55e5351469e637f5f58e3a2316349923ce3780f8d587db2d72378aed66a8261c916544fa6846ca5611aa2565b610ea07ffd643c72710c63c0180259aba6b2d05451e3591a24e58b62239378085726f7837f5f58e3a2316349923ce3780f8d587db2d72378aed66a8261c916544fa6846ca5611aa2565b610eca7f5f58e3a2316349923ce3780f8d587db2d72378aed66a8261c916544fa6846ca530611aed565b73ffffffffffffffffffffffffffffffffffffffff811615610f1057610f107f5f58e3a2316349923ce3780f8d587db2d72378aed66a8261c916544fa6846ca582611aed565b60005b8351811015610fa557610f5f7fb09aa5aeb3702cfd50b6b62bc4532604938f21248a27a1d5ca736082b6819cc1858381518110610f5257610f5261257f565b6020026020010151611aed565b610f957ffd643c72710c63c0180259aba6b2d05451e3591a24e58b62239378085726f783858381518110610f5257610f5261257f565b610f9e8161265d565b9050610f13565b5060005b8251811015610ff857610fe87fd8aa0f3194971a2a116679f7c2090f6939c8d4e01a2a8d7e41d55e5351469e63848381518110610f5257610f5261257f565b610ff18161265d565b9050610fa9565b506040517f64d623530000000000000000000000000000000000000000000000000000000081526004810185905230906364d6235390602401600060405180830381600087803b15801561104b57600080fd5b505af11580156108d5573d6000803e3d6000fd5b60008888888888888888604051602001611080989796959493929190612742565b60405160208183030381529060405280519060200120905098975050505050505050565b7ffd643c72710c63c0180259aba6b2d05451e3591a24e58b62239378085726f7836110ce81611423565b6110d7826109e6565b6111495760405162461bcd60e51b815260206004820152603160248201527f54696d656c6f636b436f6e74726f6c6c65723a206f7065726174696f6e20636160448201527f6e6e6f742062652063616e63656c6c656400000000000000000000000000000060648201526084016109cf565b6000828152600160205260408082208290555183917fbaa1eb22f2a492ba1a5fea61b8df4d27c6c8b5f3971e63bb58fa14ff72eedb7091a25050565b6000828152602081905260409020600101546111a081611423565b61092a83836119eb565b600080527fdae2aa361dfd1ca020a396615627d436107c35eff9fe7738a3512819782d70696020527f5ba6852781629bcdcd4bdaa6de76d786f1c64b16acdac474e55bebc0ea157951547fd8aa0f3194971a2a116679f7c2090f6939c8d4e01a2a8d7e41d55e5351469e639060ff166112275761122781336115db565b87861461129c5760405162461bcd60e51b815260206004820152602360248201527f54696d656c6f636b436f6e74726f6c6c65723a206c656e677468206d69736d6160448201527f746368000000000000000000000000000000000000000000000000000000000060648201526084016109cf565b8784146113115760405162461bcd60e51b815260206004820152602360248201527f54696d656c6f636b436f6e74726f6c6c65723a206c656e677468206d69736d6160448201527f746368000000000000000000000000000000000000000000000000000000000060648201526084016109cf565b60006113238a8a8a8a8a8a8a8a61105f565b905061132f8185611679565b60005b8981101561140d5760008b8b8381811061134e5761134e61257f565b905060200201602081019061136391906125ae565b905060008a8a848181106113795761137961257f565b9050602002013590503660008a8a868181106113975761139761257f565b90506020028101906113a991906125c9565b915091506113b984848484611782565b84867fc2617efa69bab66782fa219543714338489c4e9e178271560a91b82c3f612b58868686866040516113f0949392919061253f565b60405180910390a350505050806114069061265d565b9050611332565b506114178161186c565b50505050505050505050565b61142d81336115db565b50565b6114398261092f565b156114ac5760405162461bcd60e51b815260206004820152602f60248201527f54696d656c6f636b436f6e74726f6c6c65723a206f7065726174696f6e20616c60448201527f7265616479207363686564756c6564000000000000000000000000000000000060648201526084016109cf565b6002548110156115245760405162461bcd60e51b815260206004820152602660248201527f54696d656c6f636b436f6e74726f6c6c65723a20696e73756666696369656e7460448201527f2064656c6179000000000000000000000000000000000000000000000000000060648201526084016109cf565b61152e8142612809565b6000928352600160205260409092209190915550565b60007fffffffff0000000000000000000000000000000000000000000000000000000082167f7965db0b0000000000000000000000000000000000000000000000000000000014806107e157507f01ffc9a7000000000000000000000000000000000000000000000000000000007fffffffff000000000000000000000000000000000000000000000000000000008316146107e1565b60008281526020818152604080832073ffffffffffffffffffffffffffffffffffffffff8516845290915290205460ff166109e25761161981611af7565b611624836020611b16565b604051602001611635929190612840565b604080517fffffffffffffffffffffffffffffffffffffffffffffffffffffffffffffffe08184030181529082905262461bcd60e51b82526109cf916004016128c1565b611682826108df565b6116f45760405162461bcd60e51b815260206004820152602a60248201527f54696d656c6f636b436f6e74726f6c6c65723a206f7065726174696f6e20697360448201527f206e6f742072656164790000000000000000000000000000000000000000000060648201526084016109cf565b8015806117105750600081815260016020819052604090912054145b6109e25760405162461bcd60e51b815260206004820152602660248201527f54696d656c6f636b436f6e74726f6c6c65723a206d697373696e67206465706560448201527f6e64656e6379000000000000000000000000000000000000000000000000000060648201526084016109cf565b60008473ffffffffffffffffffffffffffffffffffffffff168484846040516117ac929190612912565b60006040518083038185875af1925050503d80600081146117e9576040519150601f19603f3d011682016040523d82523d6000602084013e6117ee565b606091505b50509050806118655760405162461bcd60e51b815260206004820152603360248201527f54696d656c6f636b436f6e74726f6c6c65723a20756e6465726c79696e67207460448201527f72616e73616374696f6e2072657665727465640000000000000000000000000060648201526084016109cf565b5050505050565b611875816108df565b6118e75760405162461bcd60e51b815260206004820152602a60248201527f54696d656c6f636b436f6e74726f6c6c65723a206f7065726174696f6e20697360448201527f206e6f742072656164790000000000000000000000000000000000000000000060648201526084016109cf565b600090815260016020819052604090912055565b60008281526020818152604080832073ffffffffffffffffffffffffffffffffffffffff8516845290915290205460ff166109e25760008281526020818152604080832073ffffffffffffffffffffffffffffffffffffffff85168452909152902080547fffffffffffffffffffffffffffffffffffffffffffffffffffffffffffffff0016600117905561198d3390565b73ffffffffffffffffffffffffffffffffffffffff168173ffffffffffffffffffffffffffffffffffffffff16837f2f8788117e7eff1d82e926ec794901d17c78024a50270940304540a733656f0d60405160405180910390a45050565b60008281526020818152604080832073ffffffffffffffffffffffffffffffffffffffff8516845290915290205460ff16156109e25760008281526020818152604080832073ffffffffffffffffffffffffffffffffffffffff8516808552925280832080547fffffffffffffffffffffffffffffffffffffffffffffffffffffffffffffff0016905551339285917ff6391f5c32d9c69d2a47ea670b442974b53935d1edc7fd64eb21e047a839171b9190a45050565b600082815260208190526040808220600101805490849055905190918391839186917fbd79b86ffe0ab8e8776151514217cd7cacd52c909f66475c3af44e129f0b00ff9190a4505050565b6109e282826118fb565b60606107e173ffffffffffffffffffffffffffffffffffffffff831660145b60606000611b25836002612922565b611b30906002612809565b67ffffffffffffffff811115611b4857611b48611eed565b6040519080825280601f01601f191660200182016040528015611b72576020820181803683370190505b5090507f300000000000000000000000000000000000000000000000000000000000000081600081518110611ba957611ba961257f565b60200101907effffffffffffffffffffffffffffffffffffffffffffffffffffffffffffff1916908160001a9053507f780000000000000000000000000000000000000000000000000000000000000081600181518110611c0c57611c0c61257f565b60200101907effffffffffffffffffffffffffffffffffffffffffffffffffffffffffffff1916908160001a9053506000611c48846002612922565b611c53906001612809565b90505b6001811115611cf0577f303132333435363738396162636465660000000000000000000000000000000085600f1660108110611c9457611c9461257f565b1a60f81b828281518110611caa57611caa61257f565b60200101907effffffffffffffffffffffffffffffffffffffffffffffffffffffffffffff1916908160001a90535060049490941c93611ce981612939565b9050611c56565b5083156108fe5760405162461bcd60e51b815260206004820181905260248201527f537472696e67733a20686578206c656e67746820696e73756666696369656e7460448201526064016109cf565b803573ffffffffffffffffffffffffffffffffffffffff81168114611d6357600080fd5b919050565b60008083601f840112611d7a57600080fd5b50813567ffffffffffffffff811115611d9257600080fd5b602083019150836020828501011115611daa57600080fd5b9250929050565b600080600080600080600060c0888a031215611dcc57600080fd5b611dd588611d3f565b965060208801359550604088013567ffffffffffffffff811115611df857600080fd5b611e048a828b01611d68565b989b979a50986060810135976080820135975060a09091013595509350505050565b600060208284031215611e3857600080fd5b81357fffffffff00000000000000000000000000000000000000000000000000000000811681146108fe57600080fd5b60008060008060008060a08789031215611e8157600080fd5b611e8a87611d3f565b955060208701359450604087013567ffffffffffffffff811115611ead57600080fd5b611eb989828a01611d68565b979a9699509760608101359660809091013595509350505050565b600060208284031215611ee657600080fd5b5035919050565b7f4e487b7100000000000000000000000000000000000000000000000000000000600052604160045260246000fd5b604051601f82017fffffffffffffffffffffffffffffffffffffffffffffffffffffffffffffffe016810167ffffffffffffffff81118282101715611f6357611f63611eed565b604052919050565b600082601f830112611f7c57600080fd5b813567ffffffffffffffff811115611f9657611f96611eed565b611fc760207fffffffffffffffffffffffffffffffffffffffffffffffffffffffffffffffe0601f84011601611f1c565b818152846020838601011115611fdc57600080fd5b816020850160208301376000918101602001919091529392505050565b6000806000806080858703121561200f57600080fd5b61201885611d3f565b935061202660208601611d3f565b925060408501359150606085013567ffffffffffffffff81111561204957600080fd5b61205587828801611f6b565b91505092959194509250565b6000806040838503121561207457600080fd5b8235915061208460208401611d3f565b90509250929050565b60008083601f84011261209f57600080fd5b50813567ffffffffffffffff8111156120b757600080fd5b6020830191508360208260051b8501011115611daa57600080fd5b600080600080600080600080600060c08a8c0312156120f057600080fd5b893567ffffffffffffffff8082111561210857600080fd5b6121148d838e0161208d565b909b50995060208c013591508082111561212d57600080fd5b6121398d838e0161208d565b909950975060408c013591508082111561215257600080fd5b5061215f8c828d0161208d565b9a9d999c50979a969997986060880135976080810135975060a0013595509350505050565b600067ffffffffffffffff82111561219e5761219e611eed565b5060051b60200190565b600082601f8301126121b957600080fd5b813560206121ce6121c983612184565b611f1c565b82815260059290921b840181019181810190868411156121ed57600080fd5b8286015b8481101561220f5761220281611d3f565b83529183019183016121f1565b509695505050505050565b6000806000806080858703121561223057600080fd5b84359350602085013567ffffffffffffffff8082111561224f57600080fd5b61225b888389016121a8565b9450604087013591508082111561227157600080fd5b5061227e878288016121a8565b92505061228d60608601611d3f565b905092959194509250565b60008060008060008060008060a0898b0312156122b457600080fd5b883567ffffffffffffffff808211156122cc57600080fd5b6122d88c838d0161208d565b909a50985060208b01359150808211156122f157600080fd5b6122fd8c838d0161208d565b909850965060408b013591508082111561231657600080fd5b506123238b828c0161208d565b999c989b509699959896976060870135966080013595509350505050565b600082601f83011261235257600080fd5b813560206123626121c983612184565b82815260059290921b8401810191818101908684111561238157600080fd5b8286015b8481101561220f5780358352918301918301612385565b600080600080600060a086880312156123b457600080fd5b6123bd86611d3f565b94506123cb60208701611d3f565b9350604086013567ffffffffffffffff808211156123e857600080fd5b6123f489838a01612341565b9450606088013591508082111561240a57600080fd5b61241689838a01612341565b9350608088013591508082111561242c57600080fd5b5061243988828901611f6b565b9150509295509295909350565b600080600080600060a0868803121561245e57600080fd5b61246786611d3f565b945061247560208701611d3f565b93506040860135925060608601359150608086013567ffffffffffffffff81111561249f57600080fd5b61243988828901611f6b565b8183528181602085013750600060208284010152600060207fffffffffffffffffffffffffffffffffffffffffffffffffffffffffffffffe0601f840116840101905092915050565b73ffffffffffffffffffffffffffffffffffffffff8716815285602082015260a06040820152600061252a60a0830186886124ab565b60608301949094525060800152949350505050565b73ffffffffffffffffffffffffffffffffffffffff851681528360208201526060604082015260006125756060830184866124ab565b9695505050505050565b7f4e487b7100000000000000000000000000000000000000000000000000000000600052603260045260246000fd5b6000602082840312156125c057600080fd5b6108fe82611d3f565b60008083357fffffffffffffffffffffffffffffffffffffffffffffffffffffffffffffffe18436030181126125fe57600080fd5b83018035915067ffffffffffffffff82111561261957600080fd5b602001915036819003821315611daa57600080fd5b7f4e487b7100000000000000000000000000000000000000000000000000000000600052601160045260246000fd5b60007fffffffffffffffffffffffffffffffffffffffffffffffffffffffffffffffff820361268e5761268e61262e565b5060010190565b818352600060208085019450848460051b86018460005b8781101561273557838303895281357fffffffffffffffffffffffffffffffffffffffffffffffffffffffffffffffe18836030181126126eb57600080fd5b8701858101903567ffffffffffffffff81111561270757600080fd5b80360382131561271657600080fd5b6127218582846124ab565b9a87019a94505050908401906001016126ac565b5090979650505050505050565b60a0808252810188905260008960c08301825b8b8110156127905773ffffffffffffffffffffffffffffffffffffffff61277b84611d3f565b16825260209283019290910190600101612755565b5083810360208501528881527f07ffffffffffffffffffffffffffffffffffffffffffffffffffffffffffffff8911156127c957600080fd5b8860051b9150818a602083013701828103602090810160408501526127f19082018789612695565b60608401959095525050608001529695505050505050565b808201808211156107e1576107e161262e565b60005b8381101561283757818101518382015260200161281f565b50506000910152565b7f416363657373436f6e74726f6c3a206163636f756e742000000000000000000081526000835161287881601785016020880161281c565b7f206973206d697373696e6720726f6c652000000000000000000000000000000060179184019182015283516128b581602884016020880161281c565b01602801949350505050565b60208152600082518060208401526128e081604085016020870161281c565b601f017fffffffffffffffffffffffffffffffffffffffffffffffffffffffffffffffe0169190910160400192915050565b8183823760009101908152919050565b80820281158282048414176107e1576107e161262e565b6000816129485761294861262e565b507fffffffffffffffffffffffffffffffffffffffffffffffffffffffffffffffff019056fea2646970667358221220d98dceaffff779ebe470b31439be8ae25a11afec63011aac99e765b880a5f7f464736f6c634300081100335f58e3a2316349923ce3780f8d587db2d72378aed66a8261c916544fa6846ca5b09aa5aeb3702cfd50b6b62bc4532604938f21248a27a1d5ca736082b6819cc1d8aa0f3194971a2a116679f7c2090f6939c8d4e01a2a8d7e41d55e5351469e63fd643c72710c63c0180259aba6b2d05451e3591a24e58b62239378085726f783",
  "linkReferences": {},
  "deployedLinkReferences": {},
  "networkId": 11155111,
  "address": "0x8A2136dffF04Febd6E37321b00dc8DF226bE82aD"
}