{
  "_format": "hh-sol-artifact-1",
  "contractName": "ProposalListsUpKeep",
  "sourceName": "contracts/chainlink/upkeep/ProposalListsUpKeep.sol",
  "abi": [
    {
      "inputs": [
        {
          "internalType": "address",
          "name": "_sorted_proposal_list_address",
          "type": "address"
        }
      ],
      "stateMutability": "nonpayable",
      "type": "constructor"
    },
    {
      "anonymous": false,
      "inputs": [
        {
          "indexed": false,
          "internalType": "uint256",
          "name": "proposalId",
          "type": "uint256"
        }
      ],
      "name": "QueueFromUpkeep",
      "type": "event"
    },
    {
      "anonymous": false,
      "inputs": [
        {
          "indexed": false,
          "internalType": "uint256",
          "name": "proposalId",
          "type": "uint256"
        }
      ],
      "name": "RemoveProposalInTheListFromUpkeep",
      "type": "event"
    },
    {
      "inputs": [],
      "name": "SORTED_PROPOSAL_LIST",
      "outputs": [
        {
          "internalType": "contract ISortedList",
          "name": "",
          "type": "address"
        }
      ],
      "stateMutability": "view",
      "type": "function"
    },
    {
      "inputs": [
        {
          "internalType": "bytes",
          "name": "",
          "type": "bytes"
        }
      ],
      "name": "checkUpkeep",
      "outputs": [
        {
          "internalType": "bool",
          "name": "upkeepNeeded",
          "type": "bool"
        },
        {
          "internalType": "bytes",
          "name": "",
          "type": "bytes"
        }
      ],
      "stateMutability": "view",
      "type": "function"
    },
    {
      "inputs": [],
      "name": "getSizeOfSortedProposalList",
      "outputs": [
        {
          "internalType": "uint256",
          "name": "",
          "type": "uint256"
        }
      ],
      "stateMutability": "view",
      "type": "function"
    },
    {
      "inputs": [
        {
          "internalType": "bytes",
          "name": "",
          "type": "bytes"
        }
      ],
      "name": "performUpkeep",
      "outputs": [],
      "stateMutability": "nonpayable",
      "type": "function"
    }
  ],
  "bytecode": "0x60a060405234801561001057600080fd5b50604051610d60380380610d6083398101604081905261002f91610040565b6001600160a01b0316608052610070565b60006020828403121561005257600080fd5b81516001600160a01b038116811461006957600080fd5b9392505050565b608051610cb46100ac6000396000818160ab0152818160f701528181610199015281816104a00152818161053701526105df0152610cb46000f3fe608060405234801561001057600080fd5b506004361061004c5760003560e01c80634585e33b146100515780636e04ff0d14610066578063b320f50b14610090578063f091116b146100a6575b600080fd5b61006461005f366004610671565b6100f2565b005b610079610074366004610671565b610498565b604051610087929190610751565b60405180910390f35b6100986105db565b604051908152602001610087565b6100cd7f000000000000000000000000000000000000000000000000000000000000000081565b60405173ffffffffffffffffffffffffffffffffffffffff9091168152602001610087565b6000807f000000000000000000000000000000000000000000000000000000000000000073ffffffffffffffffffffffffffffffffffffffff1663537e4e456040518163ffffffff1660e01b81526004016040805180830381865afa15801561015f573d6000803e3d6000fd5b505050506040513d601f19601f820116820180604052508101906101839190610774565b91509150438210156104925760008060008060007f000000000000000000000000000000000000000000000000000000000000000073ffffffffffffffffffffffffffffffffffffffff16632c72fdfc876040518263ffffffff1660e01b81526004016101f291815260200190565b600060405180830381865afa15801561020f573d6000803e3d6000fd5b505050506040513d6000823e601f3d9081017fffffffffffffffffffffffffffffffffffffffffffffffffffffffffffffffe016820160405261025591908101906109f7565b9450945094509450945060008573ffffffffffffffffffffffffffffffffffffffff16633e4f49e6886040518263ffffffff1660e01b815260040161029c91815260200190565b602060405180830381865afa1580156102b9573d6000803e3d6000fd5b505050506040513d601f19601f820116820180604052508101906102dd9190610b14565b60078111156102ee576102ee610b35565b9050806004036103d157815160208301206040517f160cbed700000000000000000000000000000000000000000000000000000000815273ffffffffffffffffffffffffffffffffffffffff88169163160cbed79161035591899189918991600401610bb9565b6020604051808303816000875af1158015610374573d6000803e3d6000fd5b505050506040513d601f19601f820116820180604052508101906103989190610c65565b506040518781527f4a32d7b8fa2993c1c679ac3aa76227fbbfc4f4470c718c2bd3d20da3162f891d9060200160405180910390a161048b565b6040517f8d8d43150000000000000000000000000000000000000000000000000000000081526004810188905273ffffffffffffffffffffffffffffffffffffffff871690638d8d431590602401600060405180830381600087803b15801561043957600080fd5b505af115801561044d573d6000803e3d6000fd5b505050507f38ddadd3a41f2452c2a02e8b434cc226f69197427167e10dcfb5aec05b868efc8760405161048291815260200190565b60405180910390a15b5050505050505b50505050565b6000606060007f000000000000000000000000000000000000000000000000000000000000000073ffffffffffffffffffffffffffffffffffffffff1663972c53566040518163ffffffff1660e01b8152600401602060405180830381865afa158015610509573d6000803e3d6000fd5b505050506040513d601f19601f8201168201806040525081019061052d9190610c65565b11156105cf5760007f000000000000000000000000000000000000000000000000000000000000000073ffffffffffffffffffffffffffffffffffffffff1663537e4e456040518163ffffffff1660e01b81526004016040805180830381865afa15801561059f573d6000803e3d6000fd5b505050506040513d601f19601f820116820180604052508101906105c39190610774565b50431192506105d49050565b600091505b9250929050565b60007f000000000000000000000000000000000000000000000000000000000000000073ffffffffffffffffffffffffffffffffffffffff1663972c53566040518163ffffffff1660e01b8152600401602060405180830381865afa158015610648573d6000803e3d6000fd5b505050506040513d601f19601f8201168201806040525081019061066c9190610c65565b905090565b6000806020838503121561068457600080fd5b823567ffffffffffffffff8082111561069c57600080fd5b818501915085601f8301126106b057600080fd5b8135818111156106bf57600080fd5b8660208285010111156106d157600080fd5b60209290920196919550909350505050565b60005b838110156106fe5781810151838201526020016106e6565b50506000910152565b6000815180845261071f8160208601602086016106e3565b601f017fffffffffffffffffffffffffffffffffffffffffffffffffffffffffffffffe0169290920160200192915050565b821515815260406020820152600061076c6040830184610707565b949350505050565b6000806040838503121561078757600080fd5b505080516020909101519092909150565b805173ffffffffffffffffffffffffffffffffffffffff811681146107bc57600080fd5b919050565b7f4e487b7100000000000000000000000000000000000000000000000000000000600052604160045260246000fd5b604051601f82017fffffffffffffffffffffffffffffffffffffffffffffffffffffffffffffffe016810167ffffffffffffffff81118282101715610837576108376107c1565b604052919050565b600067ffffffffffffffff821115610859576108596107c1565b5060051b60200190565b600082601f83011261087457600080fd5b815160206108896108848361083f565b6107f0565b82815260059290921b840181019181810190868411156108a857600080fd5b8286015b848110156108c357805183529183019183016108ac565b509695505050505050565b600067ffffffffffffffff8311156108e8576108e86107c1565b61091960207fffffffffffffffffffffffffffffffffffffffffffffffffffffffffffffffe0601f860116016107f0565b905082815283838301111561092d57600080fd5b61093b8360208301846106e3565b9392505050565b600082601f83011261095357600080fd5b815160206109636108848361083f565b82815260059290921b8401810191818101908684111561098257600080fd5b8286015b848110156108c357805167ffffffffffffffff8111156109a65760008081fd5b8701603f810189136109b85760008081fd5b6109c98986830151604084016108ce565b845250918301918301610986565b600082601f8301126109e857600080fd5b61093b838351602085016108ce565b600080600080600060a08688031215610a0f57600080fd5b610a1886610798565b945060208087015167ffffffffffffffff80821115610a3657600080fd5b818901915089601f830112610a4a57600080fd5b8151610a586108848261083f565b81815260059190911b8301840190848101908c831115610a7757600080fd5b938501935b82851015610a9c57610a8d85610798565b82529385019390850190610a7c565b60408c01519099509450505080831115610ab557600080fd5b610ac18a848b01610863565b95506060890151925080831115610ad757600080fd5b610ae38a848b01610942565b94506080890151925080831115610af957600080fd5b5050610b07888289016109d7565b9150509295509295909350565b600060208284031215610b2657600080fd5b81516008811061093b57600080fd5b7f4e487b7100000000000000000000000000000000000000000000000000000000600052602160045260246000fd5b600081518084526020808501808196508360051b8101915082860160005b85811015610bac578284038952610b9a848351610707565b98850198935090840190600101610b82565b5091979650505050505050565b6080808252855190820181905260009060209060a0840190828901845b82811015610c0857815173ffffffffffffffffffffffffffffffffffffffff1684529284019290840190600101610bd6565b5050508381038285015286518082528783019183019060005b81811015610c3d57835183529284019291840191600101610c21565b50508481036040860152610c518188610b64565b935050505082606083015295945050505050565b600060208284031215610c7757600080fd5b505191905056fea2646970667358221220f4cc0bb9de8f670406820c81308433016b1f08c564dec854d499973270c997c064736f6c63430008110033",
  "linkReferences": {},
  "deployedLinkReferences": {},
  "networkId": 11155111,
  "address": "0xACDe80F52953992098453B13664b54F2674f1aB3"
}