{
  "_format": "hh-sol-artifact-1",
  "contractName": "QueueAndExecutionListsUpKeep",
  "sourceName": "contracts/chainlink/upkeep/QueueAndExecutionListsUpKeep.sol",
  "abi": [
    {
      "inputs": [
        {
          "internalType": "address",
          "name": "_sorted_Queue_And_Execution_list_address",
          "type": "address"
        }
      ],
      "stateMutability": "nonpayable",
      "type": "constructor"
    },
    {
      "anonymous": false,
      "inputs": [
        {
          "indexed": false,
          "internalType": "uint256",
          "name": "proposalId",
          "type": "uint256"
        }
      ],
      "name": "ExecutionFromUpkeep",
      "type": "event"
    },
    {
      "anonymous": false,
      "inputs": [
        {
          "indexed": false,
          "internalType": "uint256",
          "name": "proposalId",
          "type": "uint256"
        }
      ],
      "name": "RemoveProposalInTheListFromUpkeep",
      "type": "event"
    },
    {
      "inputs": [],
      "name": "SORTED_QUEUE_AND_EXECUTION_LIST",
      "outputs": [
        {
          "internalType": "contract ISortedList",
          "name": "",
          "type": "address"
        }
      ],
      "stateMutability": "view",
      "type": "function"
    },
    {
      "inputs": [
        {
          "internalType": "bytes",
          "name": "",
          "type": "bytes"
        }
      ],
      "name": "checkUpkeep",
      "outputs": [
        {
          "internalType": "bool",
          "name": "upkeepNeeded",
          "type": "bool"
        },
        {
          "internalType": "bytes",
          "name": "",
          "type": "bytes"
        }
      ],
      "stateMutability": "view",
      "type": "function"
    },
    {
      "inputs": [],
      "name": "getSizeOfSortedQueueAndExecutionList",
      "outputs": [
        {
          "internalType": "uint256",
          "name": "",
          "type": "uint256"
        }
      ],
      "stateMutability": "view",
      "type": "function"
    },
    {
      "inputs": [
        {
          "internalType": "bytes",
          "name": "",
          "type": "bytes"
        }
      ],
      "name": "performUpkeep",
      "outputs": [],
      "stateMutability": "nonpayable",
      "type": "function"
    }
  ],
  "bytecode": "0x60a060405234801561001057600080fd5b50604051610d5c380380610d5c83398101604081905261002f91610040565b6001600160a01b0316608052610070565b60006020828403121561005257600080fd5b81516001600160a01b038116811461006957600080fd5b9392505050565b608051610cb06100ac6000396000818160a70152818160f301528181610195015281816104980152818161053201526105c90152610cb06000f3fe608060405234801561001057600080fd5b506004361061004c5760003560e01c80634585e33b1461005157806355e60468146100665780636e04ff0d14610081578063ad0e6e21146100a2575b600080fd5b61006461005f36600461066d565b6100ee565b005b61006e610494565b6040519081526020015b60405180910390f35b61009461008f36600461066d565b61052a565b60405161007892919061074d565b6100c97f000000000000000000000000000000000000000000000000000000000000000081565b60405173ffffffffffffffffffffffffffffffffffffffff9091168152602001610078565b6000807f000000000000000000000000000000000000000000000000000000000000000073ffffffffffffffffffffffffffffffffffffffff1663537e4e456040518163ffffffff1660e01b81526004016040805180830381865afa15801561015b573d6000803e3d6000fd5b505050506040513d601f19601f8201168201806040525081019061017f9190610770565b915091504282101561048e5760008060008060007f000000000000000000000000000000000000000000000000000000000000000073ffffffffffffffffffffffffffffffffffffffff16632c72fdfc876040518263ffffffff1660e01b81526004016101ee91815260200190565b600060405180830381865afa15801561020b573d6000803e3d6000fd5b505050506040513d6000823e601f3d9081017fffffffffffffffffffffffffffffffffffffffffffffffffffffffffffffffe016820160405261025191908101906109f3565b9450945094509450945060008573ffffffffffffffffffffffffffffffffffffffff16633e4f49e6886040518263ffffffff1660e01b815260040161029891815260200190565b602060405180830381865afa1580156102b5573d6000803e3d6000fd5b505050506040513d601f19601f820116820180604052508101906102d99190610b10565b60078111156102ea576102ea610b31565b9050806005036103cd57815160208301206040517f2656227d00000000000000000000000000000000000000000000000000000000815273ffffffffffffffffffffffffffffffffffffffff881691632656227d9161035191899189918991600401610bb5565b6020604051808303816000875af1158015610370573d6000803e3d6000fd5b505050506040513d601f19601f820116820180604052508101906103949190610c61565b506040518781527fe36430809cd0022366dd7f9cf5865e75cc8efda7a29e2a58592801b7ce5f234a9060200160405180910390a1610487565b6040517f8d8d43150000000000000000000000000000000000000000000000000000000081526004810188905273ffffffffffffffffffffffffffffffffffffffff871690638d8d431590602401600060405180830381600087803b15801561043557600080fd5b505af1158015610449573d6000803e3d6000fd5b505050507f38ddadd3a41f2452c2a02e8b434cc226f69197427167e10dcfb5aec05b868efc8760405161047e91815260200190565b60405180910390a15b5050505050505b50505050565b60007f000000000000000000000000000000000000000000000000000000000000000073ffffffffffffffffffffffffffffffffffffffff1663972c53566040518163ffffffff1660e01b8152600401602060405180830381865afa158015610501573d6000803e3d6000fd5b505050506040513d601f19601f820116820180604052508101906105259190610c61565b905090565b6000606060007f000000000000000000000000000000000000000000000000000000000000000073ffffffffffffffffffffffffffffffffffffffff1663972c53566040518163ffffffff1660e01b8152600401602060405180830381865afa15801561059b573d6000803e3d6000fd5b505050506040513d601f19601f820116820180604052508101906105bf9190610c61565b11156106615760007f000000000000000000000000000000000000000000000000000000000000000073ffffffffffffffffffffffffffffffffffffffff1663537e4e456040518163ffffffff1660e01b81526004016040805180830381865afa158015610631573d6000803e3d6000fd5b505050506040513d601f19601f820116820180604052508101906106559190610770565b50421192506106669050565b600091505b9250929050565b6000806020838503121561068057600080fd5b823567ffffffffffffffff8082111561069857600080fd5b818501915085601f8301126106ac57600080fd5b8135818111156106bb57600080fd5b8660208285010111156106cd57600080fd5b60209290920196919550909350505050565b60005b838110156106fa5781810151838201526020016106e2565b50506000910152565b6000815180845261071b8160208601602086016106df565b601f017fffffffffffffffffffffffffffffffffffffffffffffffffffffffffffffffe0169290920160200192915050565b82151581526040602082015260006107686040830184610703565b949350505050565b6000806040838503121561078357600080fd5b505080516020909101519092909150565b805173ffffffffffffffffffffffffffffffffffffffff811681146107b857600080fd5b919050565b7f4e487b7100000000000000000000000000000000000000000000000000000000600052604160045260246000fd5b604051601f82017fffffffffffffffffffffffffffffffffffffffffffffffffffffffffffffffe016810167ffffffffffffffff81118282101715610833576108336107bd565b604052919050565b600067ffffffffffffffff821115610855576108556107bd565b5060051b60200190565b600082601f83011261087057600080fd5b815160206108856108808361083b565b6107ec565b82815260059290921b840181019181810190868411156108a457600080fd5b8286015b848110156108bf57805183529183019183016108a8565b509695505050505050565b600067ffffffffffffffff8311156108e4576108e46107bd565b61091560207fffffffffffffffffffffffffffffffffffffffffffffffffffffffffffffffe0601f860116016107ec565b905082815283838301111561092957600080fd5b6109378360208301846106df565b9392505050565b600082601f83011261094f57600080fd5b8151602061095f6108808361083b565b82815260059290921b8401810191818101908684111561097e57600080fd5b8286015b848110156108bf57805167ffffffffffffffff8111156109a25760008081fd5b8701603f810189136109b45760008081fd5b6109c58986830151604084016108ca565b845250918301918301610982565b600082601f8301126109e457600080fd5b610937838351602085016108ca565b600080600080600060a08688031215610a0b57600080fd5b610a1486610794565b945060208087015167ffffffffffffffff80821115610a3257600080fd5b818901915089601f830112610a4657600080fd5b8151610a546108808261083b565b81815260059190911b8301840190848101908c831115610a7357600080fd5b938501935b82851015610a9857610a8985610794565b82529385019390850190610a78565b60408c01519099509450505080831115610ab157600080fd5b610abd8a848b0161085f565b95506060890151925080831115610ad357600080fd5b610adf8a848b0161093e565b94506080890151925080831115610af557600080fd5b5050610b03888289016109d3565b9150509295509295909350565b600060208284031215610b2257600080fd5b81516008811061093757600080fd5b7f4e487b7100000000000000000000000000000000000000000000000000000000600052602160045260246000fd5b600081518084526020808501808196508360051b8101915082860160005b85811015610ba8578284038952610b96848351610703565b98850198935090840190600101610b7e565b5091979650505050505050565b6080808252855190820181905260009060209060a0840190828901845b82811015610c0457815173ffffffffffffffffffffffffffffffffffffffff1684529284019290840190600101610bd2565b5050508381038285015286518082528783019183019060005b81811015610c3957835183529284019291840191600101610c1d565b50508481036040860152610c4d8188610b60565b935050505082606083015295945050505050565b600060208284031215610c7357600080fd5b505191905056fea26469706673582212207a8b9ee62d0c2cd7972577f2df6e0ccb9f50ba6de1ee1cfbc52fde8cbab7525264736f6c63430008110033",
  "linkReferences": {},
  "deployedLinkReferences": {},
  "networkId": 11155111,
  "address": "0xB921cD6e06a952DC86F006a0E36aDc02739465ca"
}