{
  "_format": "hh-sol-artifact-1",
  "contractName": "SortedQueueAndExecutionList",
  "sourceName": "contracts/Governance/SortedQueueAndExecutionList.sol",
  "abi": [
    {
      "inputs": [],
      "stateMutability": "nonpayable",
      "type": "constructor"
    },
    {
      "inputs": [],
      "name": "OnlyRegisterProposalIdOnce",
      "type": "error"
    },
    {
      "anonymous": false,
      "inputs": [
        {
          "indexed": true,
          "internalType": "bytes32",
          "name": "role",
          "type": "bytes32"
        },
        {
          "indexed": true,
          "internalType": "bytes32",
          "name": "previousAdminRole",
          "type": "bytes32"
        },
        {
          "indexed": true,
          "internalType": "bytes32",
          "name": "newAdminRole",
          "type": "bytes32"
        }
      ],
      "name": "RoleAdminChanged",
      "type": "event"
    },
    {
      "anonymous": false,
      "inputs": [
        {
          "indexed": true,
          "internalType": "bytes32",
          "name": "role",
          "type": "bytes32"
        },
        {
          "indexed": true,
          "internalType": "address",
          "name": "account",
          "type": "address"
        },
        {
          "indexed": true,
          "internalType": "address",
          "name": "sender",
          "type": "address"
        }
      ],
      "name": "RoleGranted",
      "type": "event"
    },
    {
      "anonymous": false,
      "inputs": [
        {
          "indexed": true,
          "internalType": "bytes32",
          "name": "role",
          "type": "bytes32"
        },
        {
          "indexed": true,
          "internalType": "address",
          "name": "account",
          "type": "address"
        },
        {
          "indexed": true,
          "internalType": "address",
          "name": "sender",
          "type": "address"
        }
      ],
      "name": "RoleRevoked",
      "type": "event"
    },
    {
      "inputs": [],
      "name": "BRAND_MANAGER_ROLE",
      "outputs": [
        {
          "internalType": "bytes32",
          "name": "",
          "type": "bytes32"
        }
      ],
      "stateMutability": "view",
      "type": "function"
    },
    {
      "inputs": [],
      "name": "DEFAULT_ADMIN_ROLE",
      "outputs": [
        {
          "internalType": "bytes32",
          "name": "",
          "type": "bytes32"
        }
      ],
      "stateMutability": "view",
      "type": "function"
    },
    {
      "inputs": [
        {
          "internalType": "address",
          "name": "currentDao",
          "type": "address"
        },
        {
          "internalType": "address[]",
          "name": "_targetAddress",
          "type": "address[]"
        },
        {
          "internalType": "uint256[]",
          "name": "_values",
          "type": "uint256[]"
        },
        {
          "internalType": "bytes[]",
          "name": "_calldatas",
          "type": "bytes[]"
        },
        {
          "internalType": "string",
          "name": "_description",
          "type": "string"
        },
        {
          "internalType": "uint256",
          "name": "_epochTime",
          "type": "uint256"
        }
      ],
      "name": "addProposalId",
      "outputs": [],
      "stateMutability": "nonpayable",
      "type": "function"
    },
    {
      "inputs": [
        {
          "internalType": "uint256",
          "name": "",
          "type": "uint256"
        }
      ],
      "name": "daoByProposalId",
      "outputs": [
        {
          "internalType": "address",
          "name": "",
          "type": "address"
        }
      ],
      "stateMutability": "view",
      "type": "function"
    },
    {
      "inputs": [],
      "name": "getEarlistEndOfDate",
      "outputs": [
        {
          "internalType": "uint256",
          "name": "_time",
          "type": "uint256"
        },
        {
          "internalType": "uint256",
          "name": "_proposalId",
          "type": "uint256"
        }
      ],
      "stateMutability": "view",
      "type": "function"
    },
    {
      "inputs": [
        {
          "internalType": "uint256",
          "name": "_size",
          "type": "uint256"
        }
      ],
      "name": "getList",
      "outputs": [
        {
          "internalType": "uint256[]",
          "name": "",
          "type": "uint256[]"
        }
      ],
      "stateMutability": "view",
      "type": "function"
    },
    {
      "inputs": [
        {
          "internalType": "uint256",
          "name": "id",
          "type": "uint256"
        }
      ],
      "name": "getProposals",
      "outputs": [
        {
          "internalType": "address",
          "name": "",
          "type": "address"
        },
        {
          "internalType": "address[]",
          "name": "",
          "type": "address[]"
        },
        {
          "internalType": "uint256[]",
          "name": "",
          "type": "uint256[]"
        },
        {
          "internalType": "bytes[]",
          "name": "",
          "type": "bytes[]"
        },
        {
          "internalType": "string",
          "name": "",
          "type": "string"
        }
      ],
      "stateMutability": "view",
      "type": "function"
    },
    {
      "inputs": [
        {
          "internalType": "bytes32",
          "name": "role",
          "type": "bytes32"
        }
      ],
      "name": "getRoleAdmin",
      "outputs": [
        {
          "internalType": "bytes32",
          "name": "",
          "type": "bytes32"
        }
      ],
      "stateMutability": "view",
      "type": "function"
    },
    {
      "inputs": [
        {
          "internalType": "bytes32",
          "name": "role",
          "type": "bytes32"
        },
        {
          "internalType": "address",
          "name": "account",
          "type": "address"
        }
      ],
      "name": "grantRole",
      "outputs": [],
      "stateMutability": "nonpayable",
      "type": "function"
    },
    {
      "inputs": [
        {
          "internalType": "bytes32",
          "name": "role",
          "type": "bytes32"
        },
        {
          "internalType": "address",
          "name": "account",
          "type": "address"
        }
      ],
      "name": "hasRole",
      "outputs": [
        {
          "internalType": "bool",
          "name": "",
          "type": "bool"
        }
      ],
      "stateMutability": "view",
      "type": "function"
    },
    {
      "inputs": [],
      "name": "listSize",
      "outputs": [
        {
          "internalType": "uint256",
          "name": "",
          "type": "uint256"
        }
      ],
      "stateMutability": "view",
      "type": "function"
    },
    {
      "inputs": [
        {
          "internalType": "uint256",
          "name": "",
          "type": "uint256"
        }
      ],
      "name": "proposalIds",
      "outputs": [
        {
          "internalType": "uint256",
          "name": "",
          "type": "uint256"
        }
      ],
      "stateMutability": "view",
      "type": "function"
    },
    {
      "inputs": [
        {
          "internalType": "uint256",
          "name": "_proposalId",
          "type": "uint256"
        }
      ],
      "name": "removeProposalId",
      "outputs": [],
      "stateMutability": "nonpayable",
      "type": "function"
    },
    {
      "inputs": [
        {
          "internalType": "bytes32",
          "name": "role",
          "type": "bytes32"
        },
        {
          "internalType": "address",
          "name": "account",
          "type": "address"
        }
      ],
      "name": "renounceRole",
      "outputs": [],
      "stateMutability": "nonpayable",
      "type": "function"
    },
    {
      "inputs": [
        {
          "internalType": "bytes32",
          "name": "role",
          "type": "bytes32"
        },
        {
          "internalType": "address",
          "name": "account",
          "type": "address"
        }
      ],
      "name": "revokeRole",
      "outputs": [],
      "stateMutability": "nonpayable",
      "type": "function"
    },
    {
      "inputs": [
        {
          "internalType": "bytes4",
          "name": "interfaceId",
          "type": "bytes4"
        }
      ],
      "name": "supportsInterface",
      "outputs": [
        {
          "internalType": "bool",
          "name": "",
          "type": "bool"
        }
      ],
      "stateMutability": "view",
      "type": "function"
    }
  ],
  "bytecode": "0x60806040523480156200001157600080fd5b506001600081815260046020527fabd6e7cb50984ff9c2f3e18a2660c3353dadf4e3291deeb275dae2cd1e44fe05919091556200004f903362000081565b6200007b7f47f77047616880e37bcbbdd9286c33c9168e9c2e1a65e8473c916ac5028b83ba3362000081565b62000131565b6200008d828262000091565b5050565b6000828152602081815260408083206001600160a01b038516845290915290205460ff166200008d576000828152602081815260408083206001600160a01b03851684529091529020805460ff19166001179055620000ed3390565b6001600160a01b0316816001600160a01b0316837f2f8788117e7eff1d82e926ec794901d17c78024a50270940304540a733656f0d60405160405180910390a45050565b611d2e80620001416000396000f3fe608060405234801561001057600080fd5b50600436106101005760003560e01c80638660d97c11610097578063a217fddf11610066578063a217fddf146102b4578063d547741f146102bc578063da561f45146102cf578063e4ee417f146102f657600080fd5b80638660d97c1461023457806391d1485414610247578063972c53561461028b5780639b644a231461029457600080fd5b80632c72fdfc116100d35780632c72fdfc146101935780632f2ff15d146101b757806336568abe146101ca578063537e4e45146101dd57600080fd5b806301ffc9a714610105578063193216921461012d5780631ab5b38314610142578063248a9ca314610162575b600080fd5b61011861011336600461134b565b610351565b60405190151581526020015b60405180910390f35b61014061013b366004611444565b6103ea565b005b610155610150366004611525565b6106bc565b6040516101249190611579565b610185610170366004611525565b60009081526020819052604090206001015490565b604051908152602001610124565b6101a66101a1366004611525565b610797565b6040516101249594939291906115dc565b6101406101c53660046116c2565b610a03565b6101406101d83660046116c2565b610a2d565b61021f7fabd6e7cb50984ff9c2f3e18a2660c3353dadf4e3291deeb275dae2cd1e44fe0554600081815260036020908152604082205460019092526004905291565b60408051928352602083019190915201610124565b610140610242366004611525565b610ae5565b6101186102553660046116c2565b60009182526020828152604080842073ffffffffffffffffffffffffffffffffffffffff93909316845291905290205460ff1690565b61018560015481565b6101856102a2366004611525565b60036020526000908152604090205481565b610185600081565b6101406102ca3660046116c2565b610bd7565b6101857f47f77047616880e37bcbbdd9286c33c9168e9c2e1a65e8473c916ac5028b83ba81565b61032c610304366004611525565b60026020526000908152604090205473ffffffffffffffffffffffffffffffffffffffff1681565b60405173ffffffffffffffffffffffffffffffffffffffff9091168152602001610124565b60007fffffffff0000000000000000000000000000000000000000000000000000000082167f7965db0b0000000000000000000000000000000000000000000000000000000014806103e457507f01ffc9a7000000000000000000000000000000000000000000000000000000007fffffffff000000000000000000000000000000000000000000000000000000008316145b92915050565b7f47f77047616880e37bcbbdd9286c33c9168e9c2e1a65e8473c916ac5028b83ba61041481610bfc565b60008a8a8a8a8a8a8a8a60405161042c9291906116ee565b604051908190038120610447979695949392916020016117d9565b60408051601f19818403018152918152815160209283012060008181526004909352912054909150156104a6576040517fcf20cb2c00000000000000000000000000000000000000000000000000000000815260040160405180910390fd5b60405180608001604052808c8c808060200260200160405190810160405280939291908181526020018383602002808284376000920191909152505050908252506040805160208c810282810182019093528c82529283019290918d918d91829185019084908082843760009201919091525050509082525060200161052c888a6118fd565b815260200186868080601f01602080910402602001604051908101604052809392919081815260200183838082843760009201829052509390945250508381526005602090815260409091208351805191935061058d928492910190611190565b5060208281015180516105a6926001850192019061121a565b50604082015180516105c2916002840191602090910190611255565b50606082015160038201906105d79082611a73565b5090505060006105e684610c09565b9050836003600084815260200190815260200160002081905550600460008281526020019081526020016000205460046000848152602001908152602001600020819055508160046000838152602001908152602001600020819055508c6002600084815260200190815260200160002060006101000a81548173ffffffffffffffffffffffffffffffffffffffff021916908373ffffffffffffffffffffffffffffffffffffffff160217905550600160008154809291906106a890611b9e565b919050555050505050505050505050505050565b60606001548211156106cd57600080fd5b60008267ffffffffffffffff8111156106e8576106e861189d565b604051908082528060200260200182016040528015610711578160200160208202803683370190505b506001600090815260046020527fabd6e7cb50984ff9c2f3e18a2660c3353dadf4e3291deeb275dae2cd1e44fe05549192505b8481101561078e578183828151811061075f5761075f611bd6565b6020908102919091018101919091526000928352600490526040909120549061078781611b9e565b9050610744565b50909392505050565b60008181526002602081815260408084205460058352818520805483518186028101860190945280845260609586958695869573ffffffffffffffffffffffffffffffffffffffff1694936001850193850192600386019291869183018282801561083857602002820191906000526020600020905b815473ffffffffffffffffffffffffffffffffffffffff16815260019091019060200180831161080d575b505050505093508280548060200260200160405190810160405280929190818152602001828054801561088a57602002820191906000526020600020905b815481526020019060010190808311610876575b5050505050925081805480602002602001604051908101604052809291908181526020016000905b8282101561095e5783829060005260206000200180546108d1906119d2565b80601f01602080910402602001604051908101604052809291908181526020018280546108fd906119d2565b801561094a5780601f1061091f5761010080835404028352916020019161094a565b820191906000526020600020905b81548152906001019060200180831161092d57829003601f168201915b5050505050815260200190600101906108b2565b505050509150808054610970906119d2565b80601f016020809104026020016040519081016040528092919081815260200182805461099c906119d2565b80156109e95780601f106109be576101008083540402835291602001916109e9565b820191906000526020600020905b8154815290600101906020018083116109cc57829003601f168201915b505050505090509450945094509450945091939590929450565b600082815260208190526040902060010154610a1e81610bfc565b610a288383610c52565b505050565b73ffffffffffffffffffffffffffffffffffffffff81163314610ad7576040517f08c379a000000000000000000000000000000000000000000000000000000000815260206004820152602f60248201527f416363657373436f6e74726f6c3a2063616e206f6e6c792072656e6f756e636560448201527f20726f6c657320666f722073656c66000000000000000000000000000000000060648201526084015b60405180910390fd5b610ae18282610d42565b5050565b7f47f77047616880e37bcbbdd9286c33c9168e9c2e1a65e8473c916ac5028b83ba610b0f81610bfc565b6000610b1a83610df9565b6000848152600460209081526040808320805485855282852055878452839055600390915281208190556001805492935090610b5583611c05565b9091555050600083815260056020526040812090610b7382826112a7565b610b816001830160006112a7565b610b8f6002830160006112c5565b610b9d6003830160006112e3565b50505060009182525060026020526040902080547fffffffffffffffffffffffff0000000000000000000000000000000000000000169055565b600082815260208190526040902060010154610bf281610bfc565b610a288383610d42565b610c068133610e43565b50565b600060015b600081815260046020526040902054610c2a9082908590610edd565b15610c355792915050565b600090815260046020526040902054610c0e565b50600092915050565b60008281526020818152604080832073ffffffffffffffffffffffffffffffffffffffff8516845290915290205460ff16610ae15760008281526020818152604080832073ffffffffffffffffffffffffffffffffffffffff85168452909152902080547fffffffffffffffffffffffffffffffffffffffffffffffffffffffffffffff00166001179055610ce43390565b73ffffffffffffffffffffffffffffffffffffffff168173ffffffffffffffffffffffffffffffffffffffff16837f2f8788117e7eff1d82e926ec794901d17c78024a50270940304540a733656f0d60405160405180910390a45050565b60008281526020818152604080832073ffffffffffffffffffffffffffffffffffffffff8516845290915290205460ff1615610ae15760008281526020818152604080832073ffffffffffffffffffffffffffffffffffffffff8516808552925280832080547fffffffffffffffffffffffffffffffffffffffffffffffffffffffffffffff0016905551339285917ff6391f5c32d9c69d2a47ea670b442974b53935d1edc7fd64eb21e047a839171b9190a45050565b600060015b600081815260046020526040902054600114610c49576000818152600460205260409020548303610e2f5792915050565b600090815260046020526040902054610dfe565b60008281526020818152604080832073ffffffffffffffffffffffffffffffffffffffff8516845290915290205460ff16610ae157610e8181610f27565b610e8c836020610f46565b604051602001610e9d929190611c3a565b60408051601f19818403018152908290527f08c379a0000000000000000000000000000000000000000000000000000000008252610ace91600401611cbb565b60006001841480610efc57506000848152600360205260409020548310155b8015610f1f57506001821480610f1f575060008281526003602052604090205483105b949350505050565b60606103e473ffffffffffffffffffffffffffffffffffffffff831660145b60606000610f55836002611cce565b610f60906002611ce5565b67ffffffffffffffff811115610f7857610f7861189d565b6040519080825280601f01601f191660200182016040528015610fa2576020820181803683370190505b5090507f300000000000000000000000000000000000000000000000000000000000000081600081518110610fd957610fd9611bd6565b60200101907effffffffffffffffffffffffffffffffffffffffffffffffffffffffffffff1916908160001a9053507f78000000000000000000000000000000000000000000000000000000000000008160018151811061103c5761103c611bd6565b60200101907effffffffffffffffffffffffffffffffffffffffffffffffffffffffffffff1916908160001a9053506000611078846002611cce565b611083906001611ce5565b90505b6001811115611120577f303132333435363738396162636465660000000000000000000000000000000085600f16601081106110c4576110c4611bd6565b1a60f81b8282815181106110da576110da611bd6565b60200101907effffffffffffffffffffffffffffffffffffffffffffffffffffffffffffff1916908160001a90535060049490941c9361111981611c05565b9050611086565b508315611189576040517f08c379a000000000000000000000000000000000000000000000000000000000815260206004820181905260248201527f537472696e67733a20686578206c656e67746820696e73756666696369656e746044820152606401610ace565b9392505050565b82805482825590600052602060002090810192821561120a579160200282015b8281111561120a57825182547fffffffffffffffffffffffff00000000000000000000000000000000000000001673ffffffffffffffffffffffffffffffffffffffff9091161782556020909201916001909101906111b0565b50611216929150611319565b5090565b82805482825590600052602060002090810192821561120a579160200282015b8281111561120a57825182559160200191906001019061123a565b82805482825590600052602060002090810192821561129b579160200282015b8281111561129b578251829061128b9082611a73565b5091602001919060010190611275565b5061121692915061132e565b5080546000825590600052602060002090810190610c069190611319565b5080546000825590600052602060002090810190610c06919061132e565b5080546112ef906119d2565b6000825580601f106112ff575050565b601f016020900490600052602060002090810190610c0691905b5b80821115611216576000815560010161131a565b8082111561121657600061134282826112e3565b5060010161132e565b60006020828403121561135d57600080fd5b81357fffffffff000000000000000000000000000000000000000000000000000000008116811461118957600080fd5b803573ffffffffffffffffffffffffffffffffffffffff811681146113b157600080fd5b919050565b60008083601f8401126113c857600080fd5b50813567ffffffffffffffff8111156113e057600080fd5b6020830191508360208260051b85010111156113fb57600080fd5b9250929050565b60008083601f84011261141457600080fd5b50813567ffffffffffffffff81111561142c57600080fd5b6020830191508360208285010111156113fb57600080fd5b60008060008060008060008060008060c08b8d03121561146357600080fd5b61146c8b61138d565b995060208b013567ffffffffffffffff8082111561148957600080fd5b6114958e838f016113b6565b909b50995060408d01359150808211156114ae57600080fd5b6114ba8e838f016113b6565b909950975060608d01359150808211156114d357600080fd5b6114df8e838f016113b6565b909750955060808d01359150808211156114f857600080fd5b506115058d828e01611402565b9150809450508092505060a08b013590509295989b9194979a5092959850565b60006020828403121561153757600080fd5b5035919050565b600081518084526020808501945080840160005b8381101561156e57815187529582019590820190600101611552565b509495945050505050565b602081526000611189602083018461153e565b60005b838110156115a757818101518382015260200161158f565b50506000910152565b600081518084526115c881602086016020860161158c565b601f01601f19169290920160200192915050565b600060a0820173ffffffffffffffffffffffffffffffffffffffff8089168452602060a08186015282895180855260c087019150828b01945060005b81811015611636578551851683529483019491830191600101611618565b5050858103604087015261164a818a61153e565b935050848303606086015282915086518084528184019250818160051b85010182890160005b8381101561169e57601f1987840301865261168c8383516115b0565b95850195925090840190600101611670565b505086810360808801526116b281896115b0565b9c9b505050505050505050505050565b600080604083850312156116d557600080fd5b823591506116e56020840161138d565b90509250929050565b8183823760009101908152919050565b818352818160208501375060006020828401015260006020601f19601f840116840101905092915050565b81835260006020808501808196508560051b810191508460005b878110156117cc57828403895281357fffffffffffffffffffffffffffffffffffffffffffffffffffffffffffffffe188360301811261178257600080fd5b8701858101903567ffffffffffffffff81111561179e57600080fd5b8036038213156117ad57600080fd5b6117b88682846116fe565b9a87019a9550505090840190600101611743565b5091979650505050505050565b6080808252810187905260008860a08301825b8a8110156118275773ffffffffffffffffffffffffffffffffffffffff6118128461138d565b168252602092830192909101906001016117ec565b5083810360208501528781527f07ffffffffffffffffffffffffffffffffffffffffffffffffffffffffffffff88111561186057600080fd5b8760051b91508189602083013701828103602090810160408501526118889082018688611729565b91505082606083015298975050505050505050565b7f4e487b7100000000000000000000000000000000000000000000000000000000600052604160045260246000fd5b604051601f8201601f1916810167ffffffffffffffff811182821017156118f5576118f561189d565b604052919050565b600067ffffffffffffffff808411156119185761191861189d565b8360051b60206119298183016118cc565b86815291850191818101903684111561194157600080fd5b865b848110156119c65780358681111561195b5760008081fd5b8801601f368183011261196e5760008081fd5b8135888111156119805761198061189d565b61199187601f1984840116016118cc565b915080825236878285010111156119a85760008081fd5b80878401888401376000908201870152845250918301918301611943565b50979650505050505050565b600181811c908216806119e657607f821691505b602082108103611a1f577f4e487b7100000000000000000000000000000000000000000000000000000000600052602260045260246000fd5b50919050565b601f821115610a2857600081815260208120601f850160051c81016020861015611a4c5750805b601f850160051c820191505b81811015611a6b57828155600101611a58565b505050505050565b815167ffffffffffffffff811115611a8d57611a8d61189d565b611aa181611a9b84546119d2565b84611a25565b602080601f831160018114611af45760008415611abe5750858301515b7fffffffffffffffffffffffffffffffffffffffffffffffffffffffffffffffff600386901b1c1916600185901b178555611a6b565b600085815260208120601f198616915b82811015611b2357888601518255948401946001909101908401611b04565b5085821015611b5f57878501517fffffffffffffffffffffffffffffffffffffffffffffffffffffffffffffffff600388901b60f8161c191681555b5050505050600190811b01905550565b7f4e487b7100000000000000000000000000000000000000000000000000000000600052601160045260246000fd5b60007fffffffffffffffffffffffffffffffffffffffffffffffffffffffffffffffff8203611bcf57611bcf611b6f565b5060010190565b7f4e487b7100000000000000000000000000000000000000000000000000000000600052603260045260246000fd5b600081611c1457611c14611b6f565b507fffffffffffffffffffffffffffffffffffffffffffffffffffffffffffffffff0190565b7f416363657373436f6e74726f6c3a206163636f756e7420000000000000000000815260008351611c7281601785016020880161158c565b7f206973206d697373696e6720726f6c65200000000000000000000000000000006017918401918201528351611caf81602884016020880161158c565b01602801949350505050565b60208152600061118960208301846115b0565b80820281158282048414176103e4576103e4611b6f565b808201808211156103e4576103e4611b6f56fea264697066735822122090ced12e5be540fcc93fdb1a03e19e29aaae5bc18354c34424bdea32cbe7662564736f6c63430008110033",
  "linkReferences": {},
  "deployedLinkReferences": {},
  "networkId": 11155111,
  "address": "0xb30811AE90b9D9d377F71321627B7e00af7b15dd"
}