{
  "_format": "hh-sol-artifact-1",
  "contractName": "TargetContract",
  "sourceName": "contracts/targetContract/TargetContract.sol",
  "abi": [
    {
      "inputs": [
        {
          "internalType": "uint256",
          "name": "_value",
          "type": "uint256"
        }
      ],
      "name": "setValue",
      "outputs": [],
      "stateMutability": "nonpayable",
      "type": "function"
    },
    {
      "inputs": [],
      "name": "value",
      "outputs": [
        {
          "internalType": "uint256",
          "name": "",
          "type": "uint256"
        }
      ],
      "stateMutability": "view",
      "type": "function"
    }
  ],
  "bytecode": "0x608060405234801561001057600080fd5b5060b18061001f6000396000f3fe6080604052348015600f57600080fd5b506004361060325760003560e01c80633fa4f24514603757806355241077146051575b600080fd5b603f60005481565b60405190815260200160405180910390f35b6061605c3660046063565b600055565b005b600060208284031215607457600080fd5b503591905056fea26469706673582212203463120c004860c7f8aa8109515f1cd0a5d89c8ad1b68e90365c276ea2bcc44164736f6c63430008110033",
  "linkReferences": {},
  "deployedLinkReferences": {},
  "networkId": 11155111,
  "address": "0x012DC8305C613d31d783A4edb18f124443C0988F"
}